{
  "contractName": "LMS",
  "abi": [
    {
      "constant": true,
      "inputs": [
        {
          "name": "",
          "type": "uint256"
        }
      ],
      "name": "recordLogIndex",
      "outputs": [
        {
          "name": "",
          "type": "address"
        }
      ],
      "payable": false,
      "stateMutability": "view",
      "type": "function"
    },
    {
      "anonymous": false,
      "inputs": [
        {
          "indexed": false,
          "name": "libData",
          "type": "address"
        },
        {
          "indexed": false,
          "name": "lib_name",
          "type": "string"
        }
      ],
      "name": "LogNewLibrarian",
      "type": "event"
    },
    {
      "anonymous": false,
      "inputs": [
        {
          "indexed": false,
          "name": "studentData",
          "type": "address"
        },
        {
          "indexed": false,
          "name": "roll_no",
          "type": "string"
        },
        {
          "indexed": false,
          "name": "st_name",
          "type": "string"
        },
        {
          "indexed": false,
          "name": "class",
          "type": "string"
        }
      ],
      "name": "LogNewStudent",
      "type": "event"
    },
    {
      "anonymous": false,
      "inputs": [
        {
          "indexed": false,
          "name": "errorText",
          "type": "string"
        }
      ],
      "name": "errorLog",
      "type": "event"
    },
    {
      "anonymous": false,
      "inputs": [
        {
          "indexed": false,
          "name": "errorText",
          "type": "bool"
        }
      ],
      "name": "errorLog1",
      "type": "event"
    },
    {
      "anonymous": false,
      "inputs": [
        {
          "indexed": false,
          "name": "errorVal",
          "type": "uint256"
        }
      ],
      "name": "errorLog2",
      "type": "event"
    },
    {
      "anonymous": false,
      "inputs": [
        {
          "indexed": false,
          "name": "book_add",
          "type": "address"
        },
        {
          "indexed": false,
          "name": "book_category",
          "type": "string"
        },
        {
          "indexed": false,
          "name": "book_name",
          "type": "string"
        },
        {
          "indexed": false,
          "name": "book_author",
          "type": "string"
        },
        {
          "indexed": false,
          "name": "book_publisher",
          "type": "string"
        },
        {
          "indexed": false,
          "name": "book_edition",
          "type": "string"
        },
        {
          "indexed": false,
          "name": "book_no_of_copies",
          "type": "uint256"
        }
      ],
      "name": "LogNewBook",
      "type": "event"
    },
    {
      "constant": true,
      "inputs": [
        {
          "name": "commonAdress",
          "type": "address"
        }
      ],
      "name": "isAddressAvailable",
      "outputs": [
        {
          "name": "isAvail",
          "type": "bool"
        }
      ],
      "payable": false,
      "stateMutability": "view",
      "type": "function"
    },
    {
      "constant": false,
      "inputs": [
        {
          "name": "lib_address",
          "type": "address"
        },
        {
          "name": "librarian_name",
          "type": "string"
        }
      ],
      "name": "insertLibrarian",
      "outputs": [
        {
          "name": "lib_id",
          "type": "uint256"
        }
      ],
      "payable": false,
      "stateMutability": "nonpayable",
      "type": "function"
    },
    {
      "constant": true,
      "inputs": [
        {
          "name": "libAddress",
          "type": "address"
        }
      ],
      "name": "getLibrarianData",
      "outputs": [
        {
          "name": "lib_id",
          "type": "uint256"
        },
        {
          "name": "lib_name",
          "type": "string"
        }
      ],
      "payable": false,
      "stateMutability": "view",
      "type": "function"
    },
    {
      "constant": false,
      "inputs": [
        {
          "name": "studentAddress",
          "type": "address"
        },
        {
          "name": "student_roll_no",
          "type": "string"
        },
        {
          "name": "student_name",
          "type": "string"
        },
        {
          "name": "student_class",
          "type": "string"
        },
        {
          "name": "student_postal_address",
          "type": "string"
        }
      ],
      "name": "insertStudent",
      "outputs": [
        {
          "name": "stud_id",
          "type": "uint256"
        }
      ],
      "payable": false,
      "stateMutability": "nonpayable",
      "type": "function"
    },
    {
      "constant": true,
      "inputs": [],
      "name": "getStudentCount",
      "outputs": [
        {
          "name": "count",
          "type": "uint256"
        }
      ],
      "payable": false,
      "stateMutability": "view",
      "type": "function"
    },
    {
      "constant": true,
      "inputs": [
        {
          "name": "studentAddress",
          "type": "address"
        }
      ],
      "name": "getStudentData",
      "outputs": [
        {
          "name": "id",
          "type": "uint256"
        },
        {
          "name": "student_roll_no",
          "type": "string"
        },
        {
          "name": "student_name",
          "type": "string"
        },
        {
          "name": "student_class",
          "type": "string"
        },
        {
          "name": "student_postal_address",
          "type": "string"
        }
      ],
      "payable": false,
      "stateMutability": "view",
      "type": "function"
    },
    {
      "constant": false,
      "inputs": [
        {
          "name": "bookAddress",
          "type": "address"
        },
        {
          "name": "book_category",
          "type": "string"
        },
        {
          "name": "book_name",
          "type": "string"
        },
        {
          "name": "book_author",
          "type": "string"
        },
        {
          "name": "book_publisher",
          "type": "string"
        },
        {
          "name": "book_edition",
          "type": "string"
        },
        {
          "name": "book_no_of_copies",
          "type": "uint256"
        }
      ],
      "name": "insertBook",
      "outputs": [
        {
          "name": "bookNo",
          "type": "uint256"
        }
      ],
      "payable": false,
      "stateMutability": "nonpayable",
      "type": "function"
    },
    {
      "constant": true,
      "inputs": [],
      "name": "getBooksCount",
      "outputs": [
        {
          "name": "count",
          "type": "uint256"
        }
      ],
      "payable": false,
      "stateMutability": "view",
      "type": "function"
    },
    {
      "constant": true,
      "inputs": [
        {
          "name": "bookAddress",
          "type": "address"
        }
      ],
      "name": "getBookData",
      "outputs": [
        {
          "name": "book_no",
          "type": "uint256"
        },
        {
          "name": "book_category",
          "type": "string"
        },
        {
          "name": "book_name",
          "type": "string"
        },
        {
          "name": "book_author",
          "type": "string"
        },
        {
          "name": "book_publisher",
          "type": "string"
        },
        {
          "name": "book_edition",
          "type": "string"
        },
        {
          "name": "book_no_of_copies",
          "type": "uint256"
        }
      ],
      "payable": false,
      "stateMutability": "view",
      "type": "function"
    },
    {
      "constant": false,
      "inputs": [
        {
          "name": "category_id",
          "type": "uint256"
        },
        {
          "name": "book_cat_name",
          "type": "string"
        }
      ],
      "name": "insertBookCategory",
      "outputs": [],
      "payable": false,
      "stateMutability": "nonpayable",
      "type": "function"
    },
    {
      "constant": false,
      "inputs": [
        {
          "name": "book_ref",
          "type": "address"
        },
        {
          "name": "student_ref",
          "type": "address"
        },
        {
          "name": "options",
          "type": "string"
        }
      ],
      "name": "bookIssueReturn",
      "outputs": [],
      "payable": false,
      "stateMutability": "nonpayable",
      "type": "function"
    }
  ],
  "bytecode": "0x608060405234801561001057600080fd5b50613fe7806100206000396000f3006080604052600436106100ba576000357c0100000000000000000000000000000000000000000000000000000000900463ffffffff1680631d47a9cb146100bf5780633f8983231461012c57806341e0c407146103335780636aef05f21461035e578063832aa026146103fb578063887984091461046e57806398d22f5b1461062d578063a9d13a91146106d6578063d567704114610845578063dda1670f14610908578063dfd83d2a14610963578063ffd9881b1461098e575b600080fd5b3480156100cb57600080fd5b506100ea60048036038101908080359060200190929190505050610c08565b604051808273ffffffffffffffffffffffffffffffffffffffff1673ffffffffffffffffffffffffffffffffffffffff16815260200191505060405180910390f35b34801561013857600080fd5b5061016d600480360381019080803573ffffffffffffffffffffffffffffffffffffffff169060200190929190505050610c46565b6040518086815260200180602001806020018060200180602001858103855289818151815260200191508051906020019080838360005b838110156101bf5780820151818401526020810190506101a4565b50505050905090810190601f1680156101ec5780820380516001836020036101000a031916815260200191505b50858103845288818151815260200191508051906020019080838360005b8381101561022557808201518184015260208101905061020a565b50505050905090810190601f1680156102525780820380516001836020036101000a031916815260200191505b50858103835287818151815260200191508051906020019080838360005b8381101561028b578082015181840152602081019050610270565b50505050905090810190601f1680156102b85780820380516001836020036101000a031916815260200191505b50858103825286818151815260200191508051906020019080838360005b838110156102f15780820151818401526020810190506102d6565b50505050905090810190601f16801561031e5780820380516001836020036101000a031916815260200191505b50995050505050505050505060405180910390f35b34801561033f57600080fd5b50610348610f6e565b6040518082815260200191505060405180910390f35b34801561036a57600080fd5b506103e5600480360381019080803573ffffffffffffffffffffffffffffffffffffffff169060200190929190803590602001908201803590602001908080601f0160208091040260200160405190810160405280939291908181526020018383808284378201915050505050509192919290505050610f7b565b6040518082815260200191505060405180910390f35b34801561040757600080fd5b5061046c60048036038101908080359060200190929190803590602001908201803590602001908080601f016020809104026020016040519081016040528093929190818152602001838380828437820191505050505050919291929050505061127d565b005b34801561047a57600080fd5b50610617600480360381019080803573ffffffffffffffffffffffffffffffffffffffff169060200190929190803590602001908201803590602001908080601f0160208091040260200160405190810160405280939291908181526020018383808284378201915050505050509192919290803590602001908201803590602001908080601f0160208091040260200160405190810160405280939291908181526020018383808284378201915050505050509192919290803590602001908201803590602001908080601f0160208091040260200160405190810160405280939291908181526020018383808284378201915050505050509192919290803590602001908201803590602001908080601f0160208091040260200160405190810160405280939291908181526020018383808284378201915050505050509192919290803590602001908201803590602001908080601f016020809104026020016040519081016040528093929190818152602001838380828437820191505050505050919291929080359060200190929190505050611377565b6040518082815260200191505060405180910390f35b34801561063957600080fd5b506106d4600480360381019080803573ffffffffffffffffffffffffffffffffffffffff169060200190929190803573ffffffffffffffffffffffffffffffffffffffff169060200190929190803590602001908201803590602001908080601f0160208091040260200160405190810160405280939291908181526020018383808284378201915050505050509192919290505050611c0a565b005b3480156106e257600080fd5b5061082f600480360381019080803573ffffffffffffffffffffffffffffffffffffffff169060200190929190803590602001908201803590602001908080601f0160208091040260200160405190810160405280939291908181526020018383808284378201915050505050509192919290803590602001908201803590602001908080601f0160208091040260200160405190810160405280939291908181526020018383808284378201915050505050509192919290803590602001908201803590602001908080601f0160208091040260200160405190810160405280939291908181526020018383808284378201915050505050509192919290803590602001908201803590602001908080601f0160208091040260200160405190810160405280939291908181526020018383808284378201915050505050509192919290505050611c1a565b6040518082815260200191505060405180910390f35b34801561085157600080fd5b50610886600480360381019080803573ffffffffffffffffffffffffffffffffffffffff169060200190929190505050612155565b6040518083815260200180602001828103825283818151815260200191508051906020019080838360005b838110156108cc5780820151818401526020810190506108b1565b50505050905090810190601f1680156108f95780820380516001836020036101000a031916815260200191505b50935050505060405180910390f35b34801561091457600080fd5b50610949600480360381019080803573ffffffffffffffffffffffffffffffffffffffff169060200190929190505050612270565b604051808215151515815260200191505060405180910390f35b34801561096f57600080fd5b5061097861249c565b6040518082815260200191505060405180910390f35b34801561099a57600080fd5b506109cf600480360381019080803573ffffffffffffffffffffffffffffffffffffffff1690602001909291905050506124a9565b60405180888152602001806020018060200180602001806020018060200187815260200186810386528c818151815260200191508051906020019080838360005b83811015610a2b578082015181840152602081019050610a10565b50505050905090810190601f168015610a585780820380516001836020036101000a031916815260200191505b5086810385528b818151815260200191508051906020019080838360005b83811015610a91578082015181840152602081019050610a76565b50505050905090810190601f168015610abe5780820380516001836020036101000a031916815260200191505b5086810384528a818151815260200191508051906020019080838360005b83811015610af7578082015181840152602081019050610adc565b50505050905090810190601f168015610b245780820380516001836020036101000a031916815260200191505b50868103835289818151815260200191508051906020019080838360005b83811015610b5d578082015181840152602081019050610b42565b50505050905090810190601f168015610b8a5780820380516001836020036101000a031916815260200191505b50868103825288818151815260200191508051906020019080838360005b83811015610bc3578082015181840152602081019050610ba8565b50505050905090810190601f168015610bf05780820380516001836020036101000a031916815260200191505b509c5050505050505050505050505060405180910390f35b600981815481101515610c1757fe5b906000526020600020016000915054906101000a900473ffffffffffffffffffffffffffffffffffffffff1681565b6000606080606080610c56613e8e565b600360008873ffffffffffffffffffffffffffffffffffffffff1673ffffffffffffffffffffffffffffffffffffffff16815260200190815260200160002060a0604051908101604052908160008201548152602001600182018054600181600116156101000203166002900480601f016020809104026020016040519081016040528092919081815260200182805460018160011615610100020316600290048015610d445780601f10610d1957610100808354040283529160200191610d44565b820191906000526020600020905b815481529060010190602001808311610d2757829003601f168201915b50505050508152602001600282018054600181600116156101000203166002900480601f016020809104026020016040519081016040528092919081815260200182805460018160011615610100020316600290048015610de65780601f10610dbb57610100808354040283529160200191610de6565b820191906000526020600020905b815481529060010190602001808311610dc957829003601f168201915b50505050508152602001600382018054600181600116156101000203166002900480601f016020809104026020016040519081016040528092919081815260200182805460018160011615610100020316600290048015610e885780601f10610e5d57610100808354040283529160200191610e88565b820191906000526020600020905b815481529060010190602001808311610e6b57829003601f168201915b50505050508152602001600482018054600181600116156101000203166002900480601f016020809104026020016040519081016040528092919081815260200182805460018160011615610100020316600290048015610f2a5780601f10610eff57610100808354040283529160200191610f2a565b820191906000526020600020905b815481529060010190602001808311610f0d57829003601f168201915b505050505081525050905080600001518160200151826040015183606001518460800151839350829250819150809050955095509550955095505091939590929450565b6000600480549050905090565b6000610f8683612270565b1561101e577fdf8dca245d7ff96a83e9b8205a2ad0be04df6e3bbda74669314fdc76657f0e826040518080602001828103825260228152602001807f506c656173652073656c65637420646966666572656e7420616464726573732e81526020017f2e2e00000000000000000000000000000000000000000000000000000000000081525060400191505060405180910390a1611276565b81600160008573ffffffffffffffffffffffffffffffffffffffff1673ffffffffffffffffffffffffffffffffffffffff1681526020019081526020016000206001019080519060200190611074929190613ebe565b50600160028490806001815401808255809150509060018203906000526020600020016000909192909190916101000a81548173ffffffffffffffffffffffffffffffffffffffff021916908373ffffffffffffffffffffffffffffffffffffffff1602179055505050600160008490806001815401808255809150509060018203906000526020600020016000909192909190916101000a81548173ffffffffffffffffffffffffffffffffffffffff021916908373ffffffffffffffffffffffffffffffffffffffff1602179055505050600160028054905003600160008573ffffffffffffffffffffffffffffffffffffffff1673ffffffffffffffffffffffffffffffffffffffff168152602001908152602001600020600001819055507f03dc7653ba3f5623153efe4a841bb12690a1efdbd1ec5e587779fdc7ffb99d988383604051808373ffffffffffffffffffffffffffffffffffffffff1673ffffffffffffffffffffffffffffffffffffffff16815260200180602001828103825283818151815260200191508051906020019080838360005b8381101561122b578082015181840152602081019050611210565b50505050905090810190601f1680156112585780820380516001836020036101000a031916815260200191505b50935050505060405180910390a16001600280549050039050611277565b5b92915050565b816007826040518082805190602001908083835b6020831015156112b65780518252602082019150602081019050602083039250611291565b6001836020036101000a038019825116818451168082178552505050505050905001915050908152602001604051809103902060000181905550806007826040518082805190602001908083835b6020831015156113295780518252602082019150602081019050602083039250611304565b6001836020036101000a03801982511681845116808217855250505050505090500191505090815260200160405180910390206001019080519060200190611372929190613ebe565b505050565b600061138288612894565b15156113f5577fdf8dca245d7ff96a83e9b8205a2ad0be04df6e3bbda74669314fdc76657f0e8260405180806020018281038252601c8152602001807f4e6f7420617574686f72697a656420746f2061646420626f6f6b2e2e0000000081525060200191505060405180910390a1611bfe565b6113fe88612270565b15611470577fdf8dca245d7ff96a83e9b8205a2ad0be04df6e3bbda74669314fdc76657f0e826040518080602001828103825260188152602001807f4164647265737320616c7265616479204578697374732e2e000000000000000081525060200191505060405180910390a1611bfd565b866040518082805190602001908083835b6020831015156114a65780518252602082019150602081019050602083039250611481565b6001836020036101000a0380198251168184511680821785525050505050509050019150506040518091039020600019166007886040518082805190602001908083835b60208310151561150f57805182526020820191506020810190506020830392506114ea565b6001836020036101000a038019825116818451168082178552505050505050905001915050908152602001604051809103902060010160405180828054600181600116156101000203166002900480156115a05780601f1061157e5761010080835404028352918201916115a0565b820191906000526020600020905b81548152906001019060200180831161158c575b50509150506040518091039020600019161415611b6e5786600560008a73ffffffffffffffffffffffffffffffffffffffff1673ffffffffffffffffffffffffffffffffffffffff168152602001908152602001600020600101908051906020019061160d929190613ebe565b5085600560008a73ffffffffffffffffffffffffffffffffffffffff1673ffffffffffffffffffffffffffffffffffffffff1681526020019081526020016000206002019080519060200190611664929190613ebe565b5084600560008a73ffffffffffffffffffffffffffffffffffffffff1673ffffffffffffffffffffffffffffffffffffffff16815260200190815260200160002060030190805190602001906116bb929190613ebe565b5083600560008a73ffffffffffffffffffffffffffffffffffffffff1673ffffffffffffffffffffffffffffffffffffffff1681526020019081526020016000206004019080519060200190611712929190613ebe565b5082600560008a73ffffffffffffffffffffffffffffffffffffffff1673ffffffffffffffffffffffffffffffffffffffff1681526020019081526020016000206005019080519060200190611769929190613ebe565b5081600560008a73ffffffffffffffffffffffffffffffffffffffff1673ffffffffffffffffffffffffffffffffffffffff16815260200190815260200160002060060181905550600160068990806001815401808255809150509060018203906000526020600020016000909192909190916101000a81548173ffffffffffffffffffffffffffffffffffffffff021916908373ffffffffffffffffffffffffffffffffffffffff1602179055505050600160008990806001815401808255809150509060018203906000526020600020016000909192909190916101000a81548173ffffffffffffffffffffffffffffffffffffffff021916908373ffffffffffffffffffffffffffffffffffffffff1602179055505050600160068054905003600560008a73ffffffffffffffffffffffffffffffffffffffff1673ffffffffffffffffffffffffffffffffffffffff168152602001908152602001600020600001819055507f071153749bdddad5ff49accff81afef0b60bf4edfaf26d31ab937bff7d48348a88888888888888604051808873ffffffffffffffffffffffffffffffffffffffff1673ffffffffffffffffffffffffffffffffffffffff168152602001806020018060200180602001806020018060200187815260200186810386528c818151815260200191508051906020019080838360005b83811015611982578082015181840152602081019050611967565b50505050905090810190601f1680156119af5780820380516001836020036101000a031916815260200191505b5086810385528b818151815260200191508051906020019080838360005b838110156119e85780820151818401526020810190506119cd565b50505050905090810190601f168015611a155780820380516001836020036101000a031916815260200191505b5086810384528a818151815260200191508051906020019080838360005b83811015611a4e578082015181840152602081019050611a33565b50505050905090810190601f168015611a7b5780820380516001836020036101000a031916815260200191505b50868103835289818151815260200191508051906020019080838360005b83811015611ab4578082015181840152602081019050611a99565b50505050905090810190601f168015611ae15780820380516001836020036101000a031916815260200191505b50868103825288818151815260200191508051906020019080838360005b83811015611b1a578082015181840152602081019050611aff565b50505050905090810190601f168015611b475780820380516001836020036101000a031916815260200191505b509c5050505050505050505050505060405180910390a16001600680549050039050611bff565b7fdf8dca245d7ff96a83e9b8205a2ad0be04df6e3bbda74669314fdc76657f0e8260405180806020018281038252602f8152602001807f506c6561736520696e7365727420617070726f7072696174652063617465676f81526020017f72792066726f6d206d61737465722e000000000000000000000000000000000081525060400191505060405180910390a15b5b5b979650505050505050565b611c1583838361295e565b505050565b6000611c2586612894565b1515611c98577fdf8dca245d7ff96a83e9b8205a2ad0be04df6e3bbda74669314fdc76657f0e8260405180806020018281038252601f8152602001807f4e6f7420617574686f72697a656420746f206164642073747564656e742e2e0081525060200191505060405180910390a161214b565b611ca186612270565b15611d13577fdf8dca245d7ff96a83e9b8205a2ad0be04df6e3bbda74669314fdc76657f0e826040518080602001828103825260188152602001807f4164647265737320616c7265616479204578697374732e2e000000000000000081525060200191505060405180910390a161214a565b84600360008873ffffffffffffffffffffffffffffffffffffffff1673ffffffffffffffffffffffffffffffffffffffff1681526020019081526020016000206001019080519060200190611d69929190613ebe565b5083600360008873ffffffffffffffffffffffffffffffffffffffff1673ffffffffffffffffffffffffffffffffffffffff1681526020019081526020016000206002019080519060200190611dc0929190613ebe565b5082600360008873ffffffffffffffffffffffffffffffffffffffff1673ffffffffffffffffffffffffffffffffffffffff1681526020019081526020016000206003019080519060200190611e17929190613ebe565b5081600360008873ffffffffffffffffffffffffffffffffffffffff1673ffffffffffffffffffffffffffffffffffffffff1681526020019081526020016000206004019080519060200190611e6e929190613ebe565b50600160048790806001815401808255809150509060018203906000526020600020016000909192909190916101000a81548173ffffffffffffffffffffffffffffffffffffffff021916908373ffffffffffffffffffffffffffffffffffffffff1602179055505050600160008790806001815401808255809150509060018203906000526020600020016000909192909190916101000a81548173ffffffffffffffffffffffffffffffffffffffff021916908373ffffffffffffffffffffffffffffffffffffffff1602179055505050600160048054905003600360008873ffffffffffffffffffffffffffffffffffffffff1673ffffffffffffffffffffffffffffffffffffffff168152602001908152602001600020600001819055507f4ed96f2de5dee4773cd6156714b2e0bae96c0303329983d924ca54e9d08109eb86868686604051808573ffffffffffffffffffffffffffffffffffffffff1673ffffffffffffffffffffffffffffffffffffffff168152602001806020018060200180602001848103845287818151815260200191508051906020019080838360005b8381101561202f578082015181840152602081019050612014565b50505050905090810190601f16801561205c5780820380516001836020036101000a031916815260200191505b50848103835286818151815260200191508051906020019080838360005b8381101561209557808201518184015260208101905061207a565b50505050905090810190601f1680156120c25780820380516001836020036101000a031916815260200191505b50848103825285818151815260200191508051906020019080838360005b838110156120fb5780820151818401526020810190506120e0565b50505050905090810190601f1680156121285780820380516001836020036101000a031916815260200191505b5097505050505050505060405180910390a1600160048054905003905061214c565b5b5b95945050505050565b60006060612161613f3e565b600160008573ffffffffffffffffffffffffffffffffffffffff1673ffffffffffffffffffffffffffffffffffffffff16815260200190815260200160002060408051908101604052908160008201548152602001600182018054600181600116156101000203166002900480601f01602080910402602001604051908101604052809291908181526020018280546001816001161561010002031660029004801561224e5780601f106122235761010080835404028352916020019161224e565b820191906000526020600020905b81548152906001019060200180831161223157829003601f168201915b5050505050815250509050806000015181602001518090509250925050915091565b60008060008054905014156122885760009050612497565b8173ffffffffffffffffffffffffffffffffffffffff166000600360008573ffffffffffffffffffffffffffffffffffffffff1673ffffffffffffffffffffffffffffffffffffffff168152602001908152602001600020600001548154811015156122f057fe5b9060005260206000200160009054906101000a900473ffffffffffffffffffffffffffffffffffffffff1673ffffffffffffffffffffffffffffffffffffffff1614806123e357508173ffffffffffffffffffffffffffffffffffffffff166000600560008573ffffffffffffffffffffffffffffffffffffffff1673ffffffffffffffffffffffffffffffffffffffff168152602001908152602001600020600001548154811015156123a057fe5b9060005260206000200160009054906101000a900473ffffffffffffffffffffffffffffffffffffffff1673ffffffffffffffffffffffffffffffffffffffff16145b8061249457508173ffffffffffffffffffffffffffffffffffffffff166000600160008573ffffffffffffffffffffffffffffffffffffffff1673ffffffffffffffffffffffffffffffffffffffff1681526020019081526020016000206000015481548110151561245157fe5b9060005260206000200160009054906101000a900473ffffffffffffffffffffffffffffffffffffffff1673ffffffffffffffffffffffffffffffffffffffff16145b90505b919050565b6000600680549050905090565b6000606080606080606060006124bd613f58565b600560008a73ffffffffffffffffffffffffffffffffffffffff1673ffffffffffffffffffffffffffffffffffffffff16815260200190815260200160002060e0604051908101604052908160008201548152602001600182018054600181600116156101000203166002900480601f0160208091040260200160405190810160405280929190818152602001828054600181600116156101000203166002900480156125ab5780601f10612580576101008083540402835291602001916125ab565b820191906000526020600020905b81548152906001019060200180831161258e57829003601f168201915b50505050508152602001600282018054600181600116156101000203166002900480601f01602080910402602001604051908101604052809291908181526020018280546001816001161561010002031660029004801561264d5780601f106126225761010080835404028352916020019161264d565b820191906000526020600020905b81548152906001019060200180831161263057829003601f168201915b50505050508152602001600382018054600181600116156101000203166002900480601f0160208091040260200160405190810160405280929190818152602001828054600181600116156101000203166002900480156126ef5780601f106126c4576101008083540402835291602001916126ef565b820191906000526020600020905b8154815290600101906020018083116126d257829003601f168201915b50505050508152602001600482018054600181600116156101000203166002900480601f0160208091040260200160405190810160405280929190818152602001828054600181600116156101000203166002900480156127915780601f1061276657610100808354040283529160200191612791565b820191906000526020600020905b81548152906001019060200180831161277457829003601f168201915b50505050508152602001600582018054600181600116156101000203166002900480601f0160208091040260200160405190810160405280929190818152602001828054600181600116156101000203166002900480156128335780601f1061280857610100808354040283529160200191612833565b820191906000526020600020905b81548152906001019060200180831161281657829003601f168201915b505050505081526020016006820154815250509050806000015181602001518260400151836060015184608001518560a001518660c00151859550849450839350829250819150975097509750975097509750975050919395979092949650565b60008060028054905014156128ac5760009050612959565b3373ffffffffffffffffffffffffffffffffffffffff166002600160008573ffffffffffffffffffffffffffffffffffffffff1673ffffffffffffffffffffffffffffffffffffffff1681526020019081526020016000206000015481548110151561291457fe5b9060005260206000200160009054906101000a900473ffffffffffffffffffffffffffffffffffffffff1673ffffffffffffffffffffffffffffffffffffffff161490505b919050565b61296733612894565b15613dfa57600060048054905014158015612a2857508173ffffffffffffffffffffffffffffffffffffffff166004600360008573ffffffffffffffffffffffffffffffffffffffff1673ffffffffffffffffffffffffffffffffffffffff168152602001908152602001600020600001548154811015156129e557fe5b9060005260206000200160009054906101000a900473ffffffffffffffffffffffffffffffffffffffff1673ffffffffffffffffffffffffffffffffffffffff16145b15613d8c57600060068054905014158015612a8557506000600560008573ffffffffffffffffffffffffffffffffffffffff1673ffffffffffffffffffffffffffffffffffffffff16815260200190815260200160002060060154115b15613d1e5760405180807f69737375650000000000000000000000000000000000000000000000000000008152506005019050604051809103902060001916816040518082805190602001908083835b602083101515612afa5780518252602082019150602081019050602083039250612ad5565b6001836020036101000a038019825116818451168082178552505050505050905001915050604051809103902060001916141561309f578273ffffffffffffffffffffffffffffffffffffffff16600360008473ffffffffffffffffffffffffffffffffffffffff1673ffffffffffffffffffffffffffffffffffffffff16815260200190815260200160002060050160008573ffffffffffffffffffffffffffffffffffffffff1673ffffffffffffffffffffffffffffffffffffffff16815260200190815260200160002060000160009054906101000a900473ffffffffffffffffffffffffffffffffffffffff1673ffffffffffffffffffffffffffffffffffffffff16148015612ca1575060011515600360008473ffffffffffffffffffffffffffffffffffffffff1673ffffffffffffffffffffffffffffffffffffffff16815260200190815260200160002060050160008573ffffffffffffffffffffffffffffffffffffffff1673ffffffffffffffffffffffffffffffffffffffff16815260200190815260200160002060030160009054906101000a900460ff161515145b15612d13577fdf8dca245d7ff96a83e9b8205a2ad0be04df6e3bbda74669314fdc76657f0e826040518080602001828103825260198152602001807f5468697320626f6f6b20616c7265616479204578697374732e0000000000000081525060200191505060405180910390a1612fd0565b82600360008473ffffffffffffffffffffffffffffffffffffffff1673ffffffffffffffffffffffffffffffffffffffff16815260200190815260200160002060050160008573ffffffffffffffffffffffffffffffffffffffff1673ffffffffffffffffffffffffffffffffffffffff16815260200190815260200160002060000160006101000a81548173ffffffffffffffffffffffffffffffffffffffff021916908373ffffffffffffffffffffffffffffffffffffffff16021790555042600360008473ffffffffffffffffffffffffffffffffffffffff1673ffffffffffffffffffffffffffffffffffffffff16815260200190815260200160002060050160008573ffffffffffffffffffffffffffffffffffffffff1673ffffffffffffffffffffffffffffffffffffffff168152602001908152602001600020600101819055506000600360008473ffffffffffffffffffffffffffffffffffffffff1673ffffffffffffffffffffffffffffffffffffffff16815260200190815260200160002060050160008573ffffffffffffffffffffffffffffffffffffffff1673ffffffffffffffffffffffffffffffffffffffff168152602001908152602001600020600201819055506001600360008473ffffffffffffffffffffffffffffffffffffffff1673ffffffffffffffffffffffffffffffffffffffff16815260200190815260200160002060050160008573ffffffffffffffffffffffffffffffffffffffff1673ffffffffffffffffffffffffffffffffffffffff16815260200190815260200160002060030160006101000a81548160ff0219169083151502179055506001600560008573ffffffffffffffffffffffffffffffffffffffff1673ffffffffffffffffffffffffffffffffffffffff168152602001908152602001600020600601600082825403925050819055505b7fe70361553869f4f2cc199c20152b3232b65b8bb225d882c5beb63c7cc9014747600360008473ffffffffffffffffffffffffffffffffffffffff1673ffffffffffffffffffffffffffffffffffffffff16815260200190815260200160002060050160008573ffffffffffffffffffffffffffffffffffffffff1673ffffffffffffffffffffffffffffffffffffffff16815260200190815260200160002060030160009054906101000a900460ff16604051808215151515815260200191505060405180910390a1613d19565b60405180807f72657475726e00000000000000000000000000000000000000000000000000008152506006019050604051809103902060001916816040518082805190602001908083835b60208310151561310f57805182526020820191506020810190506020830392506130ea565b6001836020036101000a0380198251168184511680821785525050505050509050019150506040518091039020600019161415613caf578273ffffffffffffffffffffffffffffffffffffffff16600360008473ffffffffffffffffffffffffffffffffffffffff1673ffffffffffffffffffffffffffffffffffffffff16815260200190815260200160002060050160008573ffffffffffffffffffffffffffffffffffffffff1673ffffffffffffffffffffffffffffffffffffffff16815260200190815260200160002060000160009054906101000a900473ffffffffffffffffffffffffffffffffffffffff1673ffffffffffffffffffffffffffffffffffffffff161480156132b6575060011515600360008473ffffffffffffffffffffffffffffffffffffffff1673ffffffffffffffffffffffffffffffffffffffff16815260200190815260200160002060050160008573ffffffffffffffffffffffffffffffffffffffff1673ffffffffffffffffffffffffffffffffffffffff16815260200190815260200160002060030160009054906101000a900460ff161515145b15613c1b5742600360008473ffffffffffffffffffffffffffffffffffffffff1673ffffffffffffffffffffffffffffffffffffffff16815260200190815260200160002060050160008573ffffffffffffffffffffffffffffffffffffffff1673ffffffffffffffffffffffffffffffffffffffff168152602001908152602001600020600201819055506001600560008573ffffffffffffffffffffffffffffffffffffffff1673ffffffffffffffffffffffffffffffffffffffff1681526020019081526020016000206006016000828254019250508190555060006009805490501415613947577fdf8dca245d7ff96a83e9b8205a2ad0be04df6e3bbda74669314fdc76657f0e826040518080602001828103825260058152602001807f484572653100000000000000000000000000000000000000000000000000000081525060200191505060405180910390a16001600360008473ffffffffffffffffffffffffffffffffffffffff1673ffffffffffffffffffffffffffffffffffffffff16815260200190815260200160002060060160008573ffffffffffffffffffffffffffffffffffffffff1673ffffffffffffffffffffffffffffffffffffffff16815260200190815260200160002060050181905550600360008373ffffffffffffffffffffffffffffffffffffffff1673ffffffffffffffffffffffffffffffffffffffff16815260200190815260200160002060050160008473ffffffffffffffffffffffffffffffffffffffff1673ffffffffffffffffffffffffffffffffffffffff16815260200190815260200160002060010154600360008473ffffffffffffffffffffffffffffffffffffffff1673ffffffffffffffffffffffffffffffffffffffff16815260200190815260200160002060060160008573ffffffffffffffffffffffffffffffffffffffff1673ffffffffffffffffffffffffffffffffffffffff16815260200190815260200160002060010181905550600360008373ffffffffffffffffffffffffffffffffffffffff1673ffffffffffffffffffffffffffffffffffffffff16815260200190815260200160002060050160008473ffffffffffffffffffffffffffffffffffffffff1673ffffffffffffffffffffffffffffffffffffffff16815260200190815260200160002060020154600360008473ffffffffffffffffffffffffffffffffffffffff1673ffffffffffffffffffffffffffffffffffffffff16815260200190815260200160002060060160008573ffffffffffffffffffffffffffffffffffffffff1673ffffffffffffffffffffffffffffffffffffffff168152602001908152602001600020600201819055506000600360008473ffffffffffffffffffffffffffffffffffffffff1673ffffffffffffffffffffffffffffffffffffffff16815260200190815260200160002060050160008573ffffffffffffffffffffffffffffffffffffffff1673ffffffffffffffffffffffffffffffffffffffff16815260200190815260200160002060030160006101000a81548160ff0219169083151502179055507fe70361553869f4f2cc199c20152b3232b65b8bb225d882c5beb63c7cc9014747600360008473ffffffffffffffffffffffffffffffffffffffff1673ffffffffffffffffffffffffffffffffffffffff16815260200190815260200160002060050160008573ffffffffffffffffffffffffffffffffffffffff1673ffffffffffffffffffffffffffffffffffffffff16815260200190815260200160002060030160009054906101000a900460ff16604051808215151515815260200191505060405180910390a17fdf8dca245d7ff96a83e9b8205a2ad0be04df6e3bbda74669314fdc76657f0e82600360008473ffffffffffffffffffffffffffffffffffffffff1673ffffffffffffffffffffffffffffffffffffffff16815260200190815260200160002060060160008573ffffffffffffffffffffffffffffffffffffffff1673ffffffffffffffffffffffffffffffffffffffff16815260200190815260200160002060030160405180806020018281038252838181546001816001161561010002031660029004815260200191508054600181600116156101000203166002900480156139345780601f1061390957610100808354040283529160200191613934565b820191906000526020600020905b81548152906001019060200180831161391757829003601f168201915b50509250505060405180910390a1613c16565b7fdf8dca245d7ff96a83e9b8205a2ad0be04df6e3bbda74669314fdc76657f0e826040518080602001828103825260058152602001807f484572653200000000000000000000000000000000000000000000000000000081525060200191505060405180910390a16001600360008473ffffffffffffffffffffffffffffffffffffffff1673ffffffffffffffffffffffffffffffffffffffff16815260200190815260200160002060060160008573ffffffffffffffffffffffffffffffffffffffff1673ffffffffffffffffffffffffffffffffffffffff168152602001908152602001600020600501600082825401925050819055506000600360008473ffffffffffffffffffffffffffffffffffffffff1673ffffffffffffffffffffffffffffffffffffffff16815260200190815260200160002060050160008573ffffffffffffffffffffffffffffffffffffffff1673ffffffffffffffffffffffffffffffffffffffff16815260200190815260200160002060030160006101000a81548160ff0219169083151502179055507fdf8dca245d7ff96a83e9b8205a2ad0be04df6e3bbda74669314fdc76657f0e82600360008473ffffffffffffffffffffffffffffffffffffffff1673ffffffffffffffffffffffffffffffffffffffff16815260200190815260200160002060060160008573ffffffffffffffffffffffffffffffffffffffff1673ffffffffffffffffffffffffffffffffffffffff1681526020019081526020016000206003016040518080602001828103825283818154600181600116156101000203166002900481526020019150805460018160011615610100020316600290048015613c075780601f10613bdc57610100808354040283529160200191613c07565b820191906000526020600020905b815481529060010190602001808311613bea57829003601f168201915b50509250505060405180910390a15b613caa565b7fdf8dca245d7ff96a83e9b8205a2ad0be04df6e3bbda74669314fdc76657f0e826040518080602001828103825260298152602001807f546869732073747564656e74206973206e6f742062656c6f776e6720746f207481526020017f68697320626f6f6b2e000000000000000000000000000000000000000000000081525060400191505060405180910390a15b613d18565b7fdf8dca245d7ff96a83e9b8205a2ad0be04df6e3bbda74669314fdc76657f0e8260405180806020018281038252601a8152602001807f506c6561736520656e7465722070726f706572206f7074696f6e00000000000081525060200191505060405180910390a15b5b613d87565b7fdf8dca245d7ff96a83e9b8205a2ad0be04df6e3bbda74669314fdc76657f0e826040518080602001828103825260168152602001807f426f6f6b206973204e6f7420417661696c61626c65210000000000000000000081525060200191505060405180910390a15b613df5565b7fdf8dca245d7ff96a83e9b8205a2ad0be04df6e3bbda74669314fdc76657f0e826040518080602001828103825260208152602001807f54686973204d656d626572204944206973206e6f74207265676973746572642181525060200191505060405180910390a15b613e89565b7fdf8dca245d7ff96a83e9b8205a2ad0be04df6e3bbda74669314fdc76657f0e826040518080602001828103825260298152602001807f4e6f7420617574686f72697a656420746f20497373756520626f6f6b20746f2081526020017f73747564656e742e2e000000000000000000000000000000000000000000000081525060400191505060405180910390a15b505050565b60a06040519081016040528060008152602001606081526020016060815260200160608152602001606081525090565b828054600181600116156101000203166002900490600052602060002090601f016020900481019282601f10613eff57805160ff1916838001178555613f2d565b82800160010185558215613f2d579182015b82811115613f2c578251825591602001919060010190613f11565b5b509050613f3a9190613f96565b5090565b604080519081016040528060008152602001606081525090565b60e060405190810160405280600081526020016060815260200160608152602001606081526020016060815260200160608152602001600081525090565b613fb891905b80821115613fb4576000816000905550600101613f9c565b5090565b905600a165627a7a723058203b60dad0b2fc7bb6174a48b34f866cdafc7eae8c5d0780a37b4d90812d0249e40029",
  "source": "pragma solidity ^0.4.18;\r\n\r\ncontract LMS{\r\n    /*\r\n    * Common Functions \r\n    */\r\n    address[] myarray;\r\n    function isAddressAvailable(address commonAdress) public constant returns(bool isAvail){\r\n        if(myarray.length == 0){\r\n            return false;\r\n        } else {\r\n            return ((myarray[Students[commonAdress].student_id] == commonAdress) \r\n                || (myarray[Books[commonAdress].book_no] == commonAdress)\r\n                || (myarray[Librarians[commonAdress].lib_id] == commonAdress)\r\n                );\r\n        }    \r\n    }\r\n    \r\n    function checkIsLibrarian(address isLib) private view returns (bool bValue){\r\n        if(librariansIndex.length == 0) return false;\r\n        return (librariansIndex[Librarians[isLib].lib_id] == msg.sender);\r\n    }\r\n    \r\n    /*\r\n    * Librarian Master Details\r\n    */\r\n    struct Librarian{\r\n        uint lib_id;\r\n        string lib_name;\r\n    }\r\n    \r\n   \r\n    mapping (address => Librarian) private Librarians;\r\n    address[] private librariansIndex;\r\n    event LogNewLibrarian(address libData, string lib_name);\r\n    \r\n    function insertLibrarian(address lib_address, string librarian_name) public returns (uint lib_id){\r\n        if(isAddressAvailable(lib_address)){\r\n            emit errorLog(\"Please select different address...\");\r\n        } else{ \r\n            Librarians[lib_address].lib_name = librarian_name;\r\n            librariansIndex.push(lib_address)-1;\r\n            myarray.push(lib_address) - 1;\r\n            Librarians[lib_address].lib_id = librariansIndex.length-1;\r\n            emit LogNewLibrarian(lib_address, librarian_name);\r\n            return librariansIndex.length-1;\r\n        }\r\n    }\r\n    \r\n    function getLibrarianCount() private constant returns(uint count)\r\n    {\r\n        return librariansIndex.length;\r\n    }\r\n    \r\n    function getLibrarianData(address libAddress) public view returns(uint lib_id, string lib_name){\r\n        Librarian memory l = Librarians[libAddress];\r\n        return (l.lib_id, l.lib_name);\r\n    }\r\n    \r\n    /*\r\n    * Student Master Details\r\n    */\r\n    struct Student{\r\n         uint student_id;\r\n         string student_roll_no;\r\n         string student_name;\r\n         string student_class;\r\n         string student_postal_address;\r\n         mapping (address => bookIssueStudent) bookIssue;\r\n         mapping (address => recordLogBookIssue) recordLogIssue;\r\n    }\r\n    mapping (address => Student) private Students;\r\n    address[] private studentIndex;\r\n    event LogNewStudent(address studentData, string roll_no, string st_name, string class);\r\n    event errorLog(string errorText);\r\n    event errorLog1(bool errorText);\r\n    event errorLog2(uint errorVal);\r\n    \r\n    function insertStudent(address studentAddress, string student_roll_no, string student_name, string student_class, string student_postal_address) public returns(uint stud_id)\r\n    {\r\n        if(!checkIsLibrarian(studentAddress)){\r\n            emit errorLog(\"Not authorized to add student..\");\r\n        }\r\n        else if(isAddressAvailable(studentAddress)){\r\n            emit errorLog(\"Address already Exists..\");\r\n        }\r\n        else{\r\n            Students[studentAddress].student_roll_no = student_roll_no;\r\n            Students[studentAddress].student_name = student_name;\r\n            Students[studentAddress].student_class = student_class;\r\n            Students[studentAddress].student_postal_address = student_postal_address;\r\n            studentIndex.push(studentAddress)-1;\r\n            myarray.push(studentAddress) - 1;\r\n            Students[studentAddress].student_id = studentIndex.length-1;\r\n            emit LogNewStudent(studentAddress, student_roll_no, student_name,student_class);\r\n            return studentIndex.length-1;    \r\n        } \r\n    }\r\n    \r\n    function getStudentCount() public constant returns(uint count)\r\n    {\r\n        return studentIndex.length;\r\n    }\r\n    \r\n    function getStudentData(address studentAddress) public view returns(uint id, string student_roll_no, string student_name, string student_class, string student_postal_address){\r\n        Student memory s = Students[studentAddress];\r\n        return (s.student_id, s.student_roll_no, s.student_name, s.student_class, s.student_postal_address);\r\n    }\r\n    /*\r\n    * Book Master Details\r\n    */\r\n    struct Book{\r\n        uint book_no;\r\n        string book_category;\r\n        string book_name;\r\n        string book_author;\r\n        string book_publisher;\r\n        string book_edition;\r\n        uint book_no_of_copies;\r\n    }\r\n    mapping (address => Book) Books;\r\n    address[] private bookIndex;\r\n    event LogNewBook(address book_add, string book_category, string book_name, string book_author, string book_publisher, string book_edition, uint book_no_of_copies);\r\n    \r\n    function insertBook(address bookAddress, string book_category, string book_name, string book_author, string book_publisher, string book_edition, uint book_no_of_copies) public returns(uint bookNo) {\r\n         if(!checkIsLibrarian(bookAddress)){\r\n            emit errorLog(\"Not authorized to add book..\");\r\n        } else if(isAddressAvailable(bookAddress)){\r\n            emit errorLog(\"Address already Exists..\");\r\n        }\r\n        else{\r\n            if(keccak256(b_Categories[book_category].category_name) == keccak256(book_category)){\r\n                Books[bookAddress].book_category = book_category;\r\n                Books[bookAddress].book_name = book_name;\r\n                Books[bookAddress].book_author = book_author;\r\n                Books[bookAddress].book_publisher = book_publisher;\r\n                Books[bookAddress].book_edition = book_edition;\r\n                Books[bookAddress].book_no_of_copies = book_no_of_copies;\r\n                bookIndex.push(bookAddress)-1;\r\n                myarray.push(bookAddress) - 1;\r\n                Books[bookAddress].book_no = bookIndex.length - 1;\r\n                emit LogNewBook(bookAddress, book_category, book_name, book_author, book_publisher, book_edition, book_no_of_copies);\r\n                return bookIndex.length-1;     \r\n            }else {\r\n                emit errorLog(\"Please insert appropriate category from master.\");\r\n            }\r\n               \r\n        } \r\n    }\r\n    \r\n    function getBooksCount() public constant returns(uint count)\r\n    {\r\n        return bookIndex.length;\r\n    }\r\n    \r\n    function getBookData(address bookAddress) public view returns(uint book_no, string book_category, string book_name, string book_author, string book_publisher, string book_edition, uint book_no_of_copies){\r\n        Book memory bk = Books[bookAddress];\r\n        return (bk.book_no, bk.book_category, bk.book_name, bk.book_author, bk.book_publisher, bk.book_edition, bk.book_no_of_copies);\r\n    }\r\n    \r\n    /*\r\n    * Books category Details\r\n    */\r\n    struct b_Category{\r\n        uint category_id;\r\n        string category_name;\r\n    }\r\n    mapping (string => b_Category) b_Categories;\r\n    string[] b_Category_Index;\r\n    \r\n    function insertBookCategory(uint category_id, string book_cat_name) public {\r\n        b_Categories[book_cat_name].category_id = category_id;\r\n        b_Categories[book_cat_name].category_name = book_cat_name;\r\n    }\r\n\r\n    /*\r\n    * Book Issue to Student Details\r\n    */\r\n    \r\n    struct bookIssueStudent{\r\n        address book_no;\r\n        uint book_issue_date;\r\n        uint book_return_date;\r\n        bool isAvailibility;\r\n    }\r\n    \r\n    struct recordLogBookIssue{\r\n        address book_no;\r\n        uint book_issue_date;\r\n        uint book_return_date;\r\n        string appendIssuedate;\r\n        string appendReturndate;\r\n        uint count;\r\n    }\r\n    address[] public recordLogIndex;\r\n\r\n    function bookIssueReturn(address book_ref, address student_ref, string options) public{\r\n            bookIssuetoStudent(book_ref,student_ref, options );\r\n    }\r\n    \r\n    function bookIssuetoStudent(address book_ref, address student_ref, string options) private {\r\n        if(checkIsLibrarian(msg.sender)){\r\n            if(studentIndex.length != 0 && studentIndex[Students[student_ref].student_id] == student_ref){\r\n                if(bookIndex.length != 0 && Books[book_ref].book_no_of_copies > 0){\r\n                    if(keccak256(options) == keccak256(\"issue\")){\r\n                        if((Students[student_ref].bookIssue[book_ref].book_no == book_ref) && (Students[student_ref].bookIssue[book_ref].isAvailibility == true)){\r\n                               emit errorLog(\"This book already Exists.\");\r\n                        }else{\r\n                            //Students[student_ref].bookIssue[book_ref] = bookIssueStudent(book_ref,now,0, 1);\r\n                            Students[student_ref].bookIssue[book_ref].book_no = book_ref;\r\n                            Students[student_ref].bookIssue[book_ref].book_issue_date = now;\r\n                            Students[student_ref].bookIssue[book_ref].book_return_date = 0;\r\n                            Students[student_ref].bookIssue[book_ref].isAvailibility = true;\r\n                            Books[book_ref].book_no_of_copies -= 1;\r\n                        }     \r\n                        emit errorLog1(Students[student_ref].bookIssue[book_ref].isAvailibility);\r\n                    } else if (keccak256(options) == keccak256(\"return\")){\r\n                        if(Students[student_ref].bookIssue[book_ref].book_no == book_ref && Students[student_ref].bookIssue[book_ref].isAvailibility == true){\r\n                            Students[student_ref].bookIssue[book_ref].book_return_date = now;\r\n                            Books[book_ref].book_no_of_copies += 1;                           \r\n                            if(recordLogIndex.length == 0){\r\n                                emit errorLog(\"HEre1\");\r\n                                Students[student_ref].recordLogIssue[book_ref].count = 1;\r\n                                Students[student_ref].recordLogIssue[book_ref].book_issue_date = Students[student_ref].bookIssue[book_ref].book_issue_date;\r\n                                Students[student_ref].recordLogIssue[book_ref].book_return_date = Students[student_ref].bookIssue[book_ref].book_return_date;\r\n                                Students[student_ref].bookIssue[book_ref].isAvailibility = false;\r\n                                emit errorLog1(Students[student_ref].bookIssue[book_ref].isAvailibility);\r\n                                emit errorLog(Students[student_ref].recordLogIssue[book_ref].appendIssuedate);\r\n                            } else {\r\n                                emit errorLog(\"HEre2\");\r\n                                Students[student_ref].recordLogIssue[book_ref].count += 1;\r\n                                //string memory old_issue_date = uint2str(Students[student_ref].recordLogIssue[book_ref].book_issue_date);\r\n                                //string memory new_issue_date = uint2str(Students[student_ref].bookIssue[book_ref].book_issue_date);  \r\n                                //Students[student_ref].recordLogIssue[book_ref].appendIssuedate = concat(old_issue_date,new_issue_date);                                \r\n                                Students[student_ref].bookIssue[book_ref].isAvailibility = false;\r\n                                emit errorLog(Students[student_ref].recordLogIssue[book_ref].appendIssuedate);\r\n                            }\r\n                        } else {\r\n                            emit errorLog(\"This student is not belowng to this book.\");\r\n                        }\r\n                    }\r\n                    else{\r\n                        emit errorLog(\"Please enter proper option\");\r\n                    }\r\n                }\r\n                else{\r\n                    emit errorLog(\"Book is Not Available!\");\r\n                }\r\n            } else {\r\n                 emit errorLog(\"This Member ID is not registerd!\");\r\n            }\r\n        } else {\r\n            emit errorLog(\"Not authorized to Issue book to student..\");\r\n        }\r\n        //student Exists\r\n        // book copies avaialble\r\n    }\r\n    \r\n    /*function concat(string _base, string _value) private returns (string test) {\r\n        bytes memory _baseBytes = bytes(_base);\r\n        bytes memory _valueBytes = bytes(_value);\r\n\r\n        string memory _tmpValue = new string(_baseBytes.length + _valueBytes.length);\r\n        bytes memory _newValue = bytes(_tmpValue);\r\n\r\n        uint i;\r\n        uint j;\r\n\r\n        for(i=0; i<_baseBytes.length; i++) {\r\n            _newValue[j++] = _baseBytes[i];\r\n        }\r\n\r\n        for(i=0; i<_valueBytes.length; i++) {\r\n            _newValue[j++] = _valueBytes[i++];\r\n        }\r\n        errorLog(string(_newValue));  \r\n        return string(_newValue);\r\n    }*/\r\n    function uint2str(uint i) private pure returns (string){\r\n        if (i == 0) return \"0\";\r\n        uint j = i;\r\n        uint length;\r\n        while (j != 0){\r\n            length++;\r\n            j /= 10;\r\n        }\r\n        bytes memory  bstr = new bytes(length);\r\n        uint k = length - 1;\r\n        while (i != 0){\r\n            bstr[k--] = byte(48 + i % 10);\r\n            i /= 10;\r\n        }\r\n        return string(bstr);\r\n    }\r\n    \r\n}",
  "sourcePath": "D:\\Library System\\contracts\\LMS.sol",
  "compiler": {
    "name": "solc",
    "version": "0.4.23+commit.124ca40d.Emscripten.clang"
  },
  "schemaVersion": "2.0.0",
  "updatedAt": "2018-05-21T11:49:35.320Z"
}