{
  "contractName": "Darray",
  "abi": [
    {
      "constant": false,
      "inputs": [
        {
          "name": "dincoming",
          "type": "string"
        }
      ],
      "name": "setArray",
      "outputs": [],
      "payable": false,
      "stateMutability": "nonpayable",
      "type": "function"
    },
    {
      "constant": true,
      "inputs": [],
      "name": "getArray",
      "outputs": [
        {
          "name": "",
          "type": "string"
        }
      ],
      "payable": false,
      "stateMutability": "view",
      "type": "function"
    }
  ],
  "bytecode": "0x608060405234801561001057600080fd5b506102d7806100206000396000f30060806040526004361061004c576000357c0100000000000000000000000000000000000000000000000000000000900463ffffffff16806347af607a14610051578063d504ea1d146100ba575b600080fd5b34801561005d57600080fd5b506100b8600480360381019080803590602001908201803590602001908080601f016020809104026020016040519081016040528093929190818152602001838380828437820191505050505050919291929050505061014a565b005b3480156100c657600080fd5b506100cf610164565b6040518080602001828103825283818151815260200191508051906020019080838360005b8381101561010f5780820151818401526020810190506100f4565b50505050905090810190601f16801561013c5780820380516001836020036101000a031916815260200191505b509250505060405180910390f35b8060019080519060200190610160929190610206565b5050565b606060018054600181600116156101000203166002900480601f0160208091040260200160405190810160405280929190818152602001828054600181600116156101000203166002900480156101fc5780601f106101d1576101008083540402835291602001916101fc565b820191906000526020600020905b8154815290600101906020018083116101df57829003601f168201915b5050505050905090565b828054600181600116156101000203166002900490600052602060002090601f016020900481019282601f1061024757805160ff1916838001178555610275565b82800160010185558215610275579182015b82811115610274578251825591602001919060010190610259565b5b5090506102829190610286565b5090565b6102a891905b808211156102a457600081600090555060010161028c565b5090565b905600a165627a7a723058207a35cd91d884637eb756d6ab67b16741811078793ab402bc5842d2a3e18b789c0029",
  "source": "pragma solidity ^0.4.18;\r\n\r\ncontract Darray {\r\n\r\n    address creator;\r\n    string imgbyte; \r\n    \r\n    \r\n    function setArray(string dincoming)  \r\n    {\r\n    \timgbyte = dincoming;\r\n    }\r\n    \r\n    \r\n    \r\n    function getArray() constant returns (string)  \r\n    {\r\n    \treturn imgbyte;\r\n    }\r\n    \r\n   \r\n}",
  "sourcePath": "D:\\LibrarySystem\\contracts\\Darray.sol",
  "compiler": {
    "name": "solc",
    "version": "0.4.23+commit.124ca40d.Emscripten.clang"
  },
  "schemaVersion": "2.0.0",
  "updatedAt": "2018-06-06T06:39:20.216Z"
}