{
  "contractName": "LMS",
  "abi": [
    {
      "constant": true,
      "inputs": [
        {
          "name": "",
          "type": "uint256"
        }
      ],
      "name": "bookDetails",
      "outputs": [
        {
          "name": "ISDN",
          "type": "uint256"
        },
        {
          "name": "title",
          "type": "string"
        },
        {
          "name": "author",
          "type": "string"
        },
        {
          "name": "publisher",
          "type": "string"
        },
        {
          "name": "totalNumberofBook",
          "type": "uint256"
        },
        {
          "name": "numberofAvailableBooks",
          "type": "uint256"
        },
        {
          "name": "bookAdded",
          "type": "uint256"
        }
      ],
      "payable": false,
      "stateMutability": "view",
      "type": "function"
    },
    {
      "constant": true,
      "inputs": [],
      "name": "issuedate",
      "outputs": [
        {
          "name": "",
          "type": "uint256"
        }
      ],
      "payable": false,
      "stateMutability": "view",
      "type": "function"
    },
    {
      "constant": true,
      "inputs": [],
      "name": "owner",
      "outputs": [
        {
          "name": "",
          "type": "address"
        }
      ],
      "payable": false,
      "stateMutability": "view",
      "type": "function"
    },
    {
      "constant": true,
      "inputs": [],
      "name": "timeDuration",
      "outputs": [
        {
          "name": "",
          "type": "uint256"
        }
      ],
      "payable": false,
      "stateMutability": "view",
      "type": "function"
    },
    {
      "constant": true,
      "inputs": [
        {
          "name": "",
          "type": "address"
        }
      ],
      "name": "memberDetails",
      "outputs": [
        {
          "name": "memberName",
          "type": "string"
        },
        {
          "name": "memberAccount",
          "type": "address"
        },
        {
          "name": "email",
          "type": "string"
        },
        {
          "name": "dateAddedMember",
          "type": "uint256"
        }
      ],
      "payable": false,
      "stateMutability": "view",
      "type": "function"
    },
    {
      "constant": true,
      "inputs": [],
      "name": "returndate",
      "outputs": [
        {
          "name": "",
          "type": "uint256"
        }
      ],
      "payable": false,
      "stateMutability": "view",
      "type": "function"
    },
    {
      "constant": true,
      "inputs": [
        {
          "name": "",
          "type": "address"
        }
      ],
      "name": "librarianDetails",
      "outputs": [
        {
          "name": "librarianAddress",
          "type": "address"
        },
        {
          "name": "librarianName",
          "type": "string"
        }
      ],
      "payable": false,
      "stateMutability": "view",
      "type": "function"
    },
    {
      "constant": true,
      "inputs": [],
      "name": "addBookEventCnt",
      "outputs": [
        {
          "name": "",
          "type": "uint256"
        }
      ],
      "payable": false,
      "stateMutability": "view",
      "type": "function"
    },
    {
      "inputs": [],
      "payable": false,
      "stateMutability": "nonpayable",
      "type": "constructor"
    },
    {
      "anonymous": false,
      "inputs": [
        {
          "indexed": false,
          "name": "_errorLog",
          "type": "string"
        }
      ],
      "name": "errorLog",
      "type": "event"
    },
    {
      "anonymous": false,
      "inputs": [
        {
          "indexed": false,
          "name": "ISDN",
          "type": "uint256"
        },
        {
          "indexed": false,
          "name": "title",
          "type": "string"
        },
        {
          "indexed": false,
          "name": "author",
          "type": "string"
        },
        {
          "indexed": false,
          "name": "publisher",
          "type": "string"
        },
        {
          "indexed": false,
          "name": "totalNumberofBook",
          "type": "uint256"
        },
        {
          "indexed": false,
          "name": "numberofAvailableBooks",
          "type": "uint256"
        },
        {
          "indexed": false,
          "name": "bookAdded",
          "type": "uint256"
        }
      ],
      "name": "addBookEvent",
      "type": "event"
    },
    {
      "anonymous": false,
      "inputs": [
        {
          "indexed": false,
          "name": "ISDN",
          "type": "uint256"
        },
        {
          "indexed": false,
          "name": "title",
          "type": "string"
        },
        {
          "indexed": false,
          "name": "author",
          "type": "string"
        },
        {
          "indexed": false,
          "name": "publisher",
          "type": "string"
        },
        {
          "indexed": false,
          "name": "totalNumberofBook",
          "type": "uint256"
        },
        {
          "indexed": false,
          "name": "numberofAvailableBooks",
          "type": "uint256"
        },
        {
          "indexed": false,
          "name": "bookAdded",
          "type": "uint256"
        },
        {
          "indexed": false,
          "name": "bookStack",
          "type": "uint256[]"
        }
      ],
      "name": "allbookdata",
      "type": "event"
    },
    {
      "anonymous": false,
      "inputs": [
        {
          "indexed": false,
          "name": "bookId",
          "type": "uint256"
        },
        {
          "indexed": false,
          "name": "ISDN",
          "type": "uint256"
        },
        {
          "indexed": false,
          "name": "bookLibrarianArray",
          "type": "address"
        },
        {
          "indexed": false,
          "name": "memberAddress",
          "type": "address"
        },
        {
          "indexed": false,
          "name": "dateAddedBook",
          "type": "uint256"
        },
        {
          "indexed": false,
          "name": "bookAvailable",
          "type": "bool"
        }
      ],
      "name": "bookMulti",
      "type": "event"
    },
    {
      "anonymous": false,
      "inputs": [
        {
          "indexed": false,
          "name": "_stack",
          "type": "uint256"
        }
      ],
      "name": "bookStackArray",
      "type": "event"
    },
    {
      "anonymous": false,
      "inputs": [
        {
          "indexed": false,
          "name": "_add",
          "type": "address"
        },
        {
          "indexed": false,
          "name": "bookId",
          "type": "uint256"
        },
        {
          "indexed": false,
          "name": "ISDN",
          "type": "uint256"
        },
        {
          "indexed": false,
          "name": "dateIssued",
          "type": "uint256"
        },
        {
          "indexed": false,
          "name": "dateReturn",
          "type": "uint256"
        },
        {
          "indexed": false,
          "name": "duration",
          "type": "uint256"
        },
        {
          "indexed": false,
          "name": "rate",
          "type": "uint256"
        },
        {
          "indexed": false,
          "name": "bookIssueJson",
          "type": "string"
        },
        {
          "indexed": false,
          "name": "bookReturnJson",
          "type": "string"
        },
        {
          "indexed": false,
          "name": "bookDurationJson",
          "type": "string"
        },
        {
          "indexed": false,
          "name": "bookRateJson",
          "type": "string"
        }
      ],
      "name": "bookMember",
      "type": "event"
    },
    {
      "constant": false,
      "inputs": [
        {
          "name": "_ISDN",
          "type": "uint256"
        },
        {
          "name": "_title",
          "type": "string"
        },
        {
          "name": "_author",
          "type": "string"
        },
        {
          "name": "_publisher",
          "type": "string"
        },
        {
          "name": "_totalNumberofBook",
          "type": "uint256"
        }
      ],
      "name": "addBook",
      "outputs": [],
      "payable": false,
      "stateMutability": "nonpayable",
      "type": "function"
    },
    {
      "constant": false,
      "inputs": [
        {
          "name": "_librarianAddress",
          "type": "address"
        },
        {
          "name": "_bookId",
          "type": "uint256"
        },
        {
          "name": "_ISDN",
          "type": "uint256"
        }
      ],
      "name": "addMultipleBook",
      "outputs": [],
      "payable": false,
      "stateMutability": "nonpayable",
      "type": "function"
    },
    {
      "constant": false,
      "inputs": [
        {
          "name": "_ISDN",
          "type": "uint256"
        },
        {
          "name": "_stock",
          "type": "uint256"
        }
      ],
      "name": "addStockofBook",
      "outputs": [],
      "payable": false,
      "stateMutability": "nonpayable",
      "type": "function"
    },
    {
      "constant": false,
      "inputs": [
        {
          "name": "_librarianAddress",
          "type": "address"
        },
        {
          "name": "_name",
          "type": "string"
        }
      ],
      "name": "addLibrarian",
      "outputs": [],
      "payable": false,
      "stateMutability": "nonpayable",
      "type": "function"
    },
    {
      "constant": false,
      "inputs": [
        {
          "name": "_memberName",
          "type": "string"
        },
        {
          "name": "_memberAccount",
          "type": "address"
        },
        {
          "name": "_email",
          "type": "string"
        }
      ],
      "name": "addMember",
      "outputs": [],
      "payable": false,
      "stateMutability": "nonpayable",
      "type": "function"
    },
    {
      "constant": true,
      "inputs": [
        {
          "name": "_ISDN",
          "type": "uint256"
        }
      ],
      "name": "nextBookAvailable",
      "outputs": [
        {
          "name": "",
          "type": "uint256"
        }
      ],
      "payable": false,
      "stateMutability": "view",
      "type": "function"
    },
    {
      "constant": false,
      "inputs": [
        {
          "name": "_memberAddress",
          "type": "address"
        },
        {
          "name": "_ISDN",
          "type": "uint256"
        }
      ],
      "name": "issueBook",
      "outputs": [],
      "payable": false,
      "stateMutability": "nonpayable",
      "type": "function"
    },
    {
      "constant": false,
      "inputs": [
        {
          "name": "_memberAddress",
          "type": "address"
        },
        {
          "name": "_bookId",
          "type": "uint256"
        },
        {
          "name": "_ISDN",
          "type": "uint256"
        }
      ],
      "name": "returnBook",
      "outputs": [],
      "payable": false,
      "stateMutability": "nonpayable",
      "type": "function"
    },
    {
      "constant": false,
      "inputs": [
        {
          "name": "_ISDN",
          "type": "uint256"
        }
      ],
      "name": "getBookAll",
      "outputs": [],
      "payable": false,
      "stateMutability": "nonpayable",
      "type": "function"
    },
    {
      "constant": false,
      "inputs": [
        {
          "name": "_ISDN",
          "type": "uint256"
        },
        {
          "name": "_bookId",
          "type": "uint256"
        }
      ],
      "name": "getMultiBookData",
      "outputs": [],
      "payable": false,
      "stateMutability": "nonpayable",
      "type": "function"
    },
    {
      "constant": true,
      "inputs": [
        {
          "name": "_ISDN",
          "type": "uint256"
        }
      ],
      "name": "getBookData",
      "outputs": [
        {
          "name": "",
          "type": "uint256"
        },
        {
          "name": "",
          "type": "string"
        },
        {
          "name": "",
          "type": "string"
        },
        {
          "name": "",
          "type": "string"
        },
        {
          "name": "",
          "type": "uint256"
        },
        {
          "name": "",
          "type": "uint256"
        }
      ],
      "payable": false,
      "stateMutability": "view",
      "type": "function"
    },
    {
      "constant": true,
      "inputs": [
        {
          "name": "_ISDN",
          "type": "uint256"
        },
        {
          "name": "_bookId",
          "type": "uint256"
        }
      ],
      "name": "getMultiBook",
      "outputs": [
        {
          "name": "",
          "type": "uint256"
        },
        {
          "name": "",
          "type": "uint256"
        },
        {
          "name": "",
          "type": "address"
        },
        {
          "name": "",
          "type": "address"
        },
        {
          "name": "",
          "type": "uint256"
        },
        {
          "name": "",
          "type": "bool"
        }
      ],
      "payable": false,
      "stateMutability": "view",
      "type": "function"
    },
    {
      "constant": true,
      "inputs": [
        {
          "name": "_ISDN",
          "type": "uint256"
        }
      ],
      "name": "getBookArray",
      "outputs": [
        {
          "name": "",
          "type": "uint256[]"
        }
      ],
      "payable": false,
      "stateMutability": "view",
      "type": "function"
    },
    {
      "constant": false,
      "inputs": [
        {
          "name": "_memberAdd",
          "type": "address"
        },
        {
          "name": "_bookId",
          "type": "uint256"
        }
      ],
      "name": "getAllMemberBook",
      "outputs": [],
      "payable": false,
      "stateMutability": "nonpayable",
      "type": "function"
    },
    {
      "constant": true,
      "inputs": [
        {
          "name": "_ISDN",
          "type": "uint256"
        },
        {
          "name": "_bookId",
          "type": "uint256"
        }
      ],
      "name": "getMemberBookData",
      "outputs": [
        {
          "name": "",
          "type": "address"
        },
        {
          "name": "",
          "type": "address"
        },
        {
          "name": "",
          "type": "uint256"
        },
        {
          "name": "",
          "type": "uint256"
        },
        {
          "name": "",
          "type": "uint256"
        },
        {
          "name": "",
          "type": "uint256"
        }
      ],
      "payable": false,
      "stateMutability": "view",
      "type": "function"
    },
    {
      "constant": true,
      "inputs": [
        {
          "name": "_bookId",
          "type": "uint256"
        },
        {
          "name": "_memberAdd",
          "type": "address"
        }
      ],
      "name": "getJsonData",
      "outputs": [
        {
          "name": "",
          "type": "string"
        },
        {
          "name": "",
          "type": "string"
        },
        {
          "name": "",
          "type": "string"
        },
        {
          "name": "",
          "type": "string"
        }
      ],
      "payable": false,
      "stateMutability": "view",
      "type": "function"
    },
    {
      "constant": true,
      "inputs": [
        {
          "name": "_memberAddress",
          "type": "address"
        }
      ],
      "name": "getMemberBookArr",
      "outputs": [
        {
          "name": "",
          "type": "address"
        },
        {
          "name": "",
          "type": "string"
        },
        {
          "name": "",
          "type": "string"
        },
        {
          "name": "",
          "type": "uint256"
        },
        {
          "name": "",
          "type": "uint256[]"
        }
      ],
      "payable": false,
      "stateMutability": "view",
      "type": "function"
    }
  ],
  "bytecode": "0x608060405234801561001057600080fd5b50336000806101000a81548173ffffffffffffffffffffffffffffffffffffffff021916908373ffffffffffffffffffffffffffffffffffffffff160217905550615476806100606000396000f300608060405260043610610149576000357c0100000000000000000000000000000000000000000000000000000000900463ffffffff168063106687671461014e57806314d32ab1146102e85780631809f9051461031f57806318742c90146103e557806324678589146105ef5780632a0c28bc146107995780632e1659c0146107da578063387a094d146108a457806356278ff1146108f15780635c934d45146109c05780636dd836b314610ac95780636fad5b6614610b20578063818af20114610b4d5780638da5cb5b14610b785780638f9276ff14610bcf5780639433aafd14610c58578063948c1c7014610caf5780639d3b7cc914610cda5780639d4b35a714610e3c578063a5ea7f0b14610fcf578063acf6018e1461101c578063be2f7a1914611047578063bf83bc5c14611136578063cd1ac4da1461116d578063eefa8bf8146111ef575b600080fd5b34801561015a57600080fd5b506101796004803603810190808035906020019092919050505061121a565b6040518088815260200180602001806020018060200187815260200186815260200185815260200184810384528a818151815260200191508051906020019080838360005b838110156101d95780820151818401526020810190506101be565b50505050905090810190601f1680156102065780820380516001836020036101000a031916815260200191505b50848103835289818151815260200191508051906020019080838360005b8381101561023f578082015181840152602081019050610224565b50505050905090810190601f16801561026c5780820380516001836020036101000a031916815260200191505b50848103825288818151815260200191508051906020019080838360005b838110156102a557808201518184015260208101905061028a565b50505050905090810190601f1680156102d25780820380516001836020036101000a031916815260200191505b509a505050505050505050505060405180910390f35b3480156102f457600080fd5b5061031d6004803603810190808035906020019092919080359060200190929190505050611424565b005b34801561032b57600080fd5b50610354600480360381019080803590602001909291908035906020019092919050505061162c565b604051808773ffffffffffffffffffffffffffffffffffffffff1673ffffffffffffffffffffffffffffffffffffffff1681526020018673ffffffffffffffffffffffffffffffffffffffff1673ffffffffffffffffffffffffffffffffffffffff168152602001858152602001848152602001838152602001828152602001965050505050505060405180910390f35b3480156103f157600080fd5b5061043060048036038101908080359060200190929190803573ffffffffffffffffffffffffffffffffffffffff169060200190929190505050611843565b6040518080602001806020018060200180602001858103855289818151815260200191508051906020019080838360005b8381101561047c578082015181840152602081019050610461565b50505050905090810190601f1680156104a95780820380516001836020036101000a031916815260200191505b50858103845288818151815260200191508051906020019080838360005b838110156104e25780820151818401526020810190506104c7565b50505050905090810190601f16801561050f5780820380516001836020036101000a031916815260200191505b50858103835287818151815260200191508051906020019080838360005b8381101561054857808201518184015260208101905061052d565b50505050905090810190601f1680156105755780820380516001836020036101000a031916815260200191505b50858103825286818151815260200191508051906020019080838360005b838110156105ae578082015181840152602081019050610593565b50505050905090810190601f1680156105db5780820380516001836020036101000a031916815260200191505b509850505050505050505060405180910390f35b3480156105fb57600080fd5b50610630600480360381019080803573ffffffffffffffffffffffffffffffffffffffff169060200190929190505050611c22565b604051808673ffffffffffffffffffffffffffffffffffffffff1673ffffffffffffffffffffffffffffffffffffffff168152602001806020018060200185815260200180602001848103845288818151815260200191508051906020019080838360005b838110156106b0578082015181840152602081019050610695565b50505050905090810190601f1680156106dd5780820380516001836020036101000a031916815260200191505b50848103835287818151815260200191508051906020019080838360005b838110156107165780820151818401526020810190506106fb565b50505050905090810190601f1680156107435780820380516001836020036101000a031916815260200191505b50848103825285818151815260200191508051906020019060200280838360005b8381101561077f578082015181840152602081019050610764565b505050509050019850505050505050505060405180910390f35b3480156107a557600080fd5b506107c460048036038101908080359060200190929190505050611f34565b6040518082815260200191505060405180910390f35b3480156107e657600080fd5b5061080f6004803603810190808035906020019092919080359060200190929190505050611f6c565b604051808781526020018681526020018573ffffffffffffffffffffffffffffffffffffffff1673ffffffffffffffffffffffffffffffffffffffff1681526020018473ffffffffffffffffffffffffffffffffffffffff1673ffffffffffffffffffffffffffffffffffffffff16815260200183815260200182151515158152602001965050505050505060405180910390f35b3480156108b057600080fd5b506108ef600480360381019080803573ffffffffffffffffffffffffffffffffffffffff169060200190929190803590602001909291905050506120da565b005b3480156108fd57600080fd5b506109be600480360381019080803590602001908201803590602001908080601f0160208091040260200160405190810160405280939291908181526020018383808284378201915050505050509192919290803573ffffffffffffffffffffffffffffffffffffffff169060200190929190803590602001908201803590602001908080601f01602080910402602001604051908101604052809392919081815260200183838082843782019150505050505091929192905050506127d5565b005b3480156109cc57600080fd5b50610ac760048036038101908080359060200190929190803590602001908201803590602001908080601f0160208091040260200160405190810160405280939291908181526020018383808284378201915050505050509192919290803590602001908201803590602001908080601f0160208091040260200160405190810160405280939291908181526020018383808284378201915050505050509192919290803590602001908201803590602001908080601f016020809104026020016040519081016040528093929190818152602001838380828437820191505050505050919291929080359060200190929190505050612a54565b005b348015610ad557600080fd5b50610b1e600480360381019080803573ffffffffffffffffffffffffffffffffffffffff1690602001909291908035906020019092919080359060200190929190505050612daa565b005b348015610b2c57600080fd5b50610b4b600480360381019080803590602001909291905050506139f3565b005b348015610b5957600080fd5b50610b62613cd5565b6040518082815260200191505060405180910390f35b348015610b8457600080fd5b50610b8d613cdb565b604051808273ffffffffffffffffffffffffffffffffffffffff1673ffffffffffffffffffffffffffffffffffffffff16815260200191505060405180910390f35b348015610bdb57600080fd5b50610c56600480360381019080803573ffffffffffffffffffffffffffffffffffffffff169060200190929190803590602001908201803590602001908080601f0160208091040260200160405190810160405280939291908181526020018383808284378201915050505050509192919290505050613d00565b005b348015610c6457600080fd5b50610cad600480360381019080803573ffffffffffffffffffffffffffffffffffffffff1690602001909291908035906020019092919080359060200190929190505050613dd5565b005b348015610cbb57600080fd5b50610cc46142ba565b6040518082815260200191505060405180910390f35b348015610ce657600080fd5b50610d1b600480360381019080803573ffffffffffffffffffffffffffffffffffffffff1690602001909291905050506142c0565b60405180806020018573ffffffffffffffffffffffffffffffffffffffff1673ffffffffffffffffffffffffffffffffffffffff16815260200180602001848152602001838103835287818151815260200191508051906020019080838360005b83811015610d97578082015181840152602081019050610d7c565b50505050905090810190601f168015610dc45780820380516001836020036101000a031916815260200191505b50838103825285818151815260200191508051906020019080838360005b83811015610dfd578082015181840152602081019050610de2565b50505050905090810190601f168015610e2a5780820380516001836020036101000a031916815260200191505b50965050505050505060405180910390f35b348015610e4857600080fd5b50610e6760048036038101908080359060200190929190505050614440565b60405180878152602001806020018060200180602001868152602001858152602001848103845289818151815260200191508051906020019080838360005b83811015610ec1578082015181840152602081019050610ea6565b50505050905090810190601f168015610eee5780820380516001836020036101000a031916815260200191505b50848103835288818151815260200191508051906020019080838360005b83811015610f27578082015181840152602081019050610f0c565b50505050905090810190601f168015610f545780820380516001836020036101000a031916815260200191505b50848103825287818151815260200191508051906020019080838360005b83811015610f8d578082015181840152602081019050610f72565b50505050905090810190601f168015610fba5780820380516001836020036101000a031916815260200191505b50995050505050505050505060405180910390f35b348015610fdb57600080fd5b5061101a600480360381019080803573ffffffffffffffffffffffffffffffffffffffff169060200190929190803590602001909291905050506146ba565b005b34801561102857600080fd5b50611031614cd1565b6040518082815260200191505060405180910390f35b34801561105357600080fd5b50611088600480360381019080803573ffffffffffffffffffffffffffffffffffffffff169060200190929190505050614cd7565b604051808373ffffffffffffffffffffffffffffffffffffffff1673ffffffffffffffffffffffffffffffffffffffff16815260200180602001828103825283818151815260200191508051906020019080838360005b838110156110fa5780820151818401526020810190506110df565b50505050905090810190601f1680156111275780820380516001836020036101000a031916815260200191505b50935050505060405180910390f35b34801561114257600080fd5b5061116b6004803603810190808035906020019092919080359060200190929190505050614db3565b005b34801561117957600080fd5b5061119860048036038101908080359060200190929190505050614e9c565b6040518080602001828103825283818151815260200191508051906020019060200280838360005b838110156111db5780820151818401526020810190506111c0565b505050509050019250505060405180910390f35b3480156111fb57600080fd5b50611204614f0a565b6040518082815260200191505060405180910390f35b6006602052806000526040600020600091509050806000015490806001018054600181600116156101000203166002900480601f0160208091040260200160405190810160405280929190818152602001828054600181600116156101000203166002900480156112cc5780601f106112a1576101008083540402835291602001916112cc565b820191906000526020600020905b8154815290600101906020018083116112af57829003601f168201915b505050505090806002018054600181600116156101000203166002900480601f01602080910402602001604051908101604052809291908181526020018280546001816001161561010002031660029004801561136a5780601f1061133f5761010080835404028352916020019161136a565b820191906000526020600020905b81548152906001019060200180831161134d57829003601f168201915b505050505090806003018054600181600116156101000203166002900480601f0160208091040260200160405190810160405280929190818152602001828054600181600116156101000203166002900480156114085780601f106113dd57610100808354040283529160200191611408565b820191906000526020600020905b8154815290600101906020018083116113eb57829003601f168201915b5050505050908060040154908060050154908060060154905087565b7f315935ce62429e6ba7f2684a02ec99ef7e09af2ce0d187f3ba52419ed489eb6a600660008481526020019081526020016000206008016000838152602001908152602001600020600001546006600085815260200190815260200160002060080160008481526020019081526020016000206001015460066000868152602001908152602001600020600801600085815260200190815260200160002060020160009054906101000a900473ffffffffffffffffffffffffffffffffffffffff1660066000878152602001908152602001600020600801600086815260200190815260200160002060030160009054906101000a900473ffffffffffffffffffffffffffffffffffffffff166006600088815260200190815260200160002060080160008781526020019081526020016000206004015460066000898152602001908152602001600020600801600088815260200190815260200160002060050160009054906101000a900460ff16604051808781526020018681526020018573ffffffffffffffffffffffffffffffffffffffff1673ffffffffffffffffffffffffffffffffffffffff1681526020018473ffffffffffffffffffffffffffffffffffffffff1673ffffffffffffffffffffffffffffffffffffffff16815260200183815260200182151515158152602001965050505050505060405180910390a15050565b6000806000806000806000600660008a8152602001908152602001600020600801600089815260200190815260200160002060030160009054906101000a900473ffffffffffffffffffffffffffffffffffffffff169050600660008a8152602001908152602001600020600801600089815260200190815260200160002060020160009054906101000a900473ffffffffffffffffffffffffffffffffffffffff1681600760008473ffffffffffffffffffffffffffffffffffffffff1673ffffffffffffffffffffffffffffffffffffffff16815260200190815260200160002060060160008b815260200190815260200160002060020154600760008573ffffffffffffffffffffffffffffffffffffffff1673ffffffffffffffffffffffffffffffffffffffff16815260200190815260200160002060060160008c815260200190815260200160002060030154600760008673ffffffffffffffffffffffffffffffffffffffff1673ffffffffffffffffffffffffffffffffffffffff16815260200190815260200160002060060160008d815260200190815260200160002060040154600760008773ffffffffffffffffffffffffffffffffffffffff1673ffffffffffffffffffffffffffffffffffffffff16815260200190815260200160002060060160008e815260200190815260200160002060050154965096509650965096509650509295509295509295565b606080606080600760008673ffffffffffffffffffffffffffffffffffffffff1673ffffffffffffffffffffffffffffffffffffffff1681526020019081526020016000206006016000878152602001908152602001600020600601600760008773ffffffffffffffffffffffffffffffffffffffff1673ffffffffffffffffffffffffffffffffffffffff1681526020019081526020016000206006016000888152602001908152602001600020600701600760008873ffffffffffffffffffffffffffffffffffffffff1673ffffffffffffffffffffffffffffffffffffffff1681526020019081526020016000206006016000898152602001908152602001600020600801600760008973ffffffffffffffffffffffffffffffffffffffff1673ffffffffffffffffffffffffffffffffffffffff16815260200190815260200160002060060160008a8152602001908152602001600020600901838054600181600116156101000203166002900480601f016020809104026020016040519081016040528092919081815260200182805460018160011615610100020316600290048015611a365780601f10611a0b57610100808354040283529160200191611a36565b820191906000526020600020905b815481529060010190602001808311611a1957829003601f168201915b50505050509350828054600181600116156101000203166002900480601f016020809104026020016040519081016040528092919081815260200182805460018160011615610100020316600290048015611ad25780601f10611aa757610100808354040283529160200191611ad2565b820191906000526020600020905b815481529060010190602001808311611ab557829003601f168201915b50505050509250818054600181600116156101000203166002900480601f016020809104026020016040519081016040528092919081815260200182805460018160011615610100020316600290048015611b6e5780601f10611b4357610100808354040283529160200191611b6e565b820191906000526020600020905b815481529060010190602001808311611b5157829003601f168201915b50505050509150808054600181600116156101000203166002900480601f016020809104026020016040519081016040528092919081815260200182805460018160011615610100020316600290048015611c0a5780601f10611bdf57610100808354040283529160200191611c0a565b820191906000526020600020905b815481529060010190602001808311611bed57829003601f168201915b50505050509050935093509350935092959194509250565b600060608060006060600760008773ffffffffffffffffffffffffffffffffffffffff1673ffffffffffffffffffffffffffffffffffffffff16815260200190815260200160002060010160009054906101000a900473ffffffffffffffffffffffffffffffffffffffff16600760008873ffffffffffffffffffffffffffffffffffffffff1673ffffffffffffffffffffffffffffffffffffffff168152602001908152602001600020600001600760008973ffffffffffffffffffffffffffffffffffffffff1673ffffffffffffffffffffffffffffffffffffffff168152602001908152602001600020600201600760008a73ffffffffffffffffffffffffffffffffffffffff1673ffffffffffffffffffffffffffffffffffffffff16815260200190815260200160002060030154600760008b73ffffffffffffffffffffffffffffffffffffffff1673ffffffffffffffffffffffffffffffffffffffff168152602001908152602001600020600401838054600181600116156101000203166002900480601f016020809104026020016040519081016040528092919081815260200182805460018160011615610100020316600290048015611e2c5780601f10611e0157610100808354040283529160200191611e2c565b820191906000526020600020905b815481529060010190602001808311611e0f57829003601f168201915b50505050509350828054600181600116156101000203166002900480601f016020809104026020016040519081016040528092919081815260200182805460018160011615610100020316600290048015611ec85780601f10611e9d57610100808354040283529160200191611ec8565b820191906000526020600020905b815481529060010190602001808311611eab57829003601f168201915b5050505050925080805480602002602001604051908101604052809291908181526020018280548015611f1a57602002820191906000526020600020905b815481526020019060010190808311611f06575b505050505090509450945094509450945091939590929450565b6000600660008381526020019081526020016000206007016000815481101515611f5a57fe5b90600052602060002001549050919050565b60008060008060008060066000898152602001908152602001600020600801600088815260200190815260200160002060000154600660008a8152602001908152602001600020600801600089815260200190815260200160002060010154600660008b815260200190815260200160002060080160008a815260200190815260200160002060020160009054906101000a900473ffffffffffffffffffffffffffffffffffffffff16600660008c815260200190815260200160002060080160008b815260200190815260200160002060030160009054906101000a900473ffffffffffffffffffffffffffffffffffffffff16600660008d815260200190815260200160002060080160008c815260200190815260200160002060040154600660008e815260200190815260200160002060080160008d815260200190815260200160002060050160009054906101000a900460ff169550955095509550955095509295509295509295565b600080600060066000858152602001908152602001600020600701600081548110151561210357fe5b906000526020600020015492508473ffffffffffffffffffffffffffffffffffffffff16600760008773ffffffffffffffffffffffffffffffffffffffff1673ffffffffffffffffffffffffffffffffffffffff16815260200190815260200160002060010160009054906101000a900473ffffffffffffffffffffffffffffffffffffffff1673ffffffffffffffffffffffffffffffffffffffff161415612765576001151560066000868152602001908152602001600020600801600085815260200190815260200160002060050160009054906101000a900460ff16151514156126f7578460066000868152602001908152602001600020600801600085815260200190815260200160002060030160006101000a81548173ffffffffffffffffffffffffffffffffffffffff021916908373ffffffffffffffffffffffffffffffffffffffff160217905550600060066000868152602001908152602001600020600801600085815260200190815260200160002060050160006101000a81548160ff0219169083151502179055506001600660008681526020019081526020016000206005016000828254039250508190555060016006600086815260200190815260200160002060070180549050039150600090505b8181101561235657600660008581526020019081526020016000206007016001820181548110151561230d57fe5b9060005260206000200154600660008681526020019081526020016000206007018281548110151561233b57fe5b906000526020600020018190555080806001019150506122df565b600660008581526020019081526020016000206007018281548110151561237957fe5b9060005260206000200160009055600660008581526020019081526020016000206007018054809190600190036123b091906152f9565b5082600760008773ffffffffffffffffffffffffffffffffffffffff1673ffffffffffffffffffffffffffffffffffffffff16815260200190815260200160002060060160008581526020019081526020016000206000018190555083600760008773ffffffffffffffffffffffffffffffffffffffff1673ffffffffffffffffffffffffffffffffffffffff16815260200190815260200160002060060160008581526020019081526020016000206001018190555042600760008773ffffffffffffffffffffffffffffffffffffffff1673ffffffffffffffffffffffffffffffffffffffff1681526020019081526020016000206006016000858152602001908152602001600020600201819055506000600760008773ffffffffffffffffffffffffffffffffffffffff1673ffffffffffffffffffffffffffffffffffffffff1681526020019081526020016000206006016000858152602001908152602001600020600a0160006101000a81548160ff0219169083151502179055506000600760008773ffffffffffffffffffffffffffffffffffffffff1673ffffffffffffffffffffffffffffffffffffffff1681526020019081526020016000206005016000858152602001908152602001600020541115612663576001600760008773ffffffffffffffffffffffffffffffffffffffff1673ffffffffffffffffffffffffffffffffffffffff168152602001908152602001600020600401849080600181540180825580915050906001820390600052602060002001600090919290919091505550506001600760008773ffffffffffffffffffffffffffffffffffffffff1673ffffffffffffffffffffffffffffffffffffffff1681526020019081526020016000206005016000858152602001908152602001600020600082825401925050819055506126f2565b7fdf8dca245d7ff96a83e9b8205a2ad0be04df6e3bbda74669314fdc76657f0e826040518080602001828103825260218152602001807f5468697320426f6f6b20494420697320616c726561647920696e20617272617981526020017f210000000000000000000000000000000000000000000000000000000000000081525060400191505060405180910390a15b612760565b7fdf8dca245d7ff96a83e9b8205a2ad0be04df6e3bbda74669314fdc76657f0e826040518080602001828103825260168152602001807f426f6f6b206973204e6f7420417661696c61626c65210000000000000000000081525060200191505060405180910390a15b6127ce565b7fdf8dca245d7ff96a83e9b8205a2ad0be04df6e3bbda74669314fdc76657f0e826040518080602001828103825260208152602001807f54686973204d656d626572204944206973206e6f74207265676973746572642181525060200191505060405180910390a15b5050505050565b8173ffffffffffffffffffffffffffffffffffffffff16600760008473ffffffffffffffffffffffffffffffffffffffff1673ffffffffffffffffffffffffffffffffffffffff16815260200190815260200160002060010160009054906101000a900473ffffffffffffffffffffffffffffffffffffffff1673ffffffffffffffffffffffffffffffffffffffff1614156128d8577fdf8dca245d7ff96a83e9b8205a2ad0be04df6e3bbda74669314fdc76657f0e826040518080602001828103825260208152602001807f54686973204d656d62657220494420697320616c72656164792065786973742181525060200191505060405180910390a1612a4f565b82600760008473ffffffffffffffffffffffffffffffffffffffff1673ffffffffffffffffffffffffffffffffffffffff168152602001908152602001600020600001908051906020019061292e929190615325565b5081600760008473ffffffffffffffffffffffffffffffffffffffff1673ffffffffffffffffffffffffffffffffffffffff16815260200190815260200160002060010160006101000a81548173ffffffffffffffffffffffffffffffffffffffff021916908373ffffffffffffffffffffffffffffffffffffffff16021790555080600760008473ffffffffffffffffffffffffffffffffffffffff1673ffffffffffffffffffffffffffffffffffffffff1681526020019081526020016000206002019080519060200190612a06929190615325565b5042600760008473ffffffffffffffffffffffffffffffffffffffff1673ffffffffffffffffffffffffffffffffffffffff168152602001908152602001600020600301819055505b505050565b8460066000878152602001908152602001600020600001541415612adf577fdf8dca245d7ff96a83e9b8205a2ad0be04df6e3bbda74669314fdc76657f0e826040518080602001828103825260208152602001807f54686973204953444e20626f6f6b20697320616c72656164792065786973742181525060200191505060405180910390a1612da3565b84600660008781526020019081526020016000206000018190555083600660008781526020019081526020016000206001019080519060200190612b24929190615325565b5082600660008781526020019081526020016000206002019080519060200190612b4f929190615325565b5081600660008781526020019081526020016000206003019080519060200190612b7a929190615325565b5080600660008781526020019081526020016000206004018190555060006006600087815260200190815260200160002060050181905550600060066000878152602001908152602001600020600601819055506004600081548092919060010191905055507fc567e9d984cb4411b3e42ac0dad854c7eb8f2fc5c2f1ef70583e593fa49879028585858585600660008c815260200190815260200160002060050154600660008d8152602001908152602001600020600601546040518088815260200180602001806020018060200187815260200186815260200185815260200184810384528a818151815260200191508051906020019080838360005b83811015612c94578082015181840152602081019050612c79565b50505050905090810190601f168015612cc15780820380516001836020036101000a031916815260200191505b50848103835289818151815260200191508051906020019080838360005b83811015612cfa578082015181840152602081019050612cdf565b50505050905090810190601f168015612d275780820380516001836020036101000a031916815260200191505b50848103825288818151815260200191508051906020019080838360005b83811015612d60578082015181840152602081019050612d45565b50505050905090810190601f168015612d8d5780820380516001836020036101000a031916815260200191505b509a505050505050505050505060405180910390a15b5050505050565b60608060608060608060608060608b73ffffffffffffffffffffffffffffffffffffffff16600660008c815260200190815260200160002060080160008d815260200190815260200160002060030160009054906101000a900473ffffffffffffffffffffffffffffffffffffffff1673ffffffffffffffffffffffffffffffffffffffff16141561397c578a600660008c815260200190815260200160002060080160008d81526020019081526020016000206000015414156138e85760001515600660008c815260200190815260200160002060080160008d815260200190815260200160002060050160009054906101000a900460ff1615151415613854576001600660008c81526020019081526020016000206007018c9080600181540180825580915050906001820390600052602060002001600090919290919091505550506001600660008c8152602001908152602001600020600501600082825401925050819055506001600660008c815260200190815260200160002060080160008d815260200190815260200160002060050160006101000a81548160ff0219169083151502179055506001600760008e73ffffffffffffffffffffffffffffffffffffffff1673ffffffffffffffffffffffffffffffffffffffff16815260200190815260200160002060060160008d8152602001908152602001600020600a0160006101000a81548160ff02191690831515021790555042600760008e73ffffffffffffffffffffffffffffffffffffffff1673ffffffffffffffffffffffffffffffffffffffff16815260200190815260200160002060060160008d815260200190815260200160002060030181905550600760008d73ffffffffffffffffffffffffffffffffffffffff1673ffffffffffffffffffffffffffffffffffffffff16815260200190815260200160002060060160008c8152602001908152602001600020600201546001819055506001544203600281905550600254600760008e73ffffffffffffffffffffffffffffffffffffffff1673ffffffffffffffffffffffffffffffffffffffff16815260200190815260200160002060060160008d815260200190815260200160002060040181905550600a6002548115156130f457fe5b04600760008e73ffffffffffffffffffffffffffffffffffffffff1673ffffffffffffffffffffffffffffffffffffffff16815260200190815260200160002060060160008d81526020019081526020016000206005018190555061315a600154614f10565b98506040805190810160405280600181526020017f2c00000000000000000000000000000000000000000000000000000000000000815250975061328d600760008e73ffffffffffffffffffffffffffffffffffffffff1673ffffffffffffffffffffffffffffffffffffffff16815260200190815260200160002060060160008d81526020019081526020016000206006018054600181600116156101000203166002900480601f0160208091040260200160405190810160405280929190818152602001828054600181600116156101000203166002900480156132815780601f1061325657610100808354040283529160200191613281565b820191906000526020600020905b81548152906001019060200180831161326457829003601f168201915b50505050508a8a615067565b965086600760008e73ffffffffffffffffffffffffffffffffffffffff1673ffffffffffffffffffffffffffffffffffffffff16815260200190815260200160002060060160008d815260200190815260200160002060060190805190602001906132f9929190615325565b50613359600760008e73ffffffffffffffffffffffffffffffffffffffff1673ffffffffffffffffffffffffffffffffffffffff16815260200190815260200160002060060160008d815260200190815260200160002060030154614f10565b9550613454600760008e73ffffffffffffffffffffffffffffffffffffffff1673ffffffffffffffffffffffffffffffffffffffff16815260200190815260200160002060060160008d81526020019081526020016000206007018054600181600116156101000203166002900480601f0160208091040260200160405190810160405280929190818152602001828054600181600116156101000203166002900480156134485780601f1061341d57610100808354040283529160200191613448565b820191906000526020600020905b81548152906001019060200180831161342b57829003601f168201915b5050505050878a615067565b945084600760008e73ffffffffffffffffffffffffffffffffffffffff1673ffffffffffffffffffffffffffffffffffffffff16815260200190815260200160002060060160008d815260200190815260200160002060070190805190602001906134c0929190615325565b50613520600760008e73ffffffffffffffffffffffffffffffffffffffff1673ffffffffffffffffffffffffffffffffffffffff16815260200190815260200160002060060160008d815260200190815260200160002060040154614f10565b935061361b600760008e73ffffffffffffffffffffffffffffffffffffffff1673ffffffffffffffffffffffffffffffffffffffff16815260200190815260200160002060060160008d81526020019081526020016000206008018054600181600116156101000203166002900480601f01602080910402602001604051908101604052809291908181526020018280546001816001161561010002031660029004801561360f5780601f106135e45761010080835404028352916020019161360f565b820191906000526020600020905b8154815290600101906020018083116135f257829003601f168201915b5050505050858a615067565b925082600760008e73ffffffffffffffffffffffffffffffffffffffff1673ffffffffffffffffffffffffffffffffffffffff16815260200190815260200160002060060160008d81526020019081526020016000206008019080519060200190613687929190615325565b506136e7600760008e73ffffffffffffffffffffffffffffffffffffffff1673ffffffffffffffffffffffffffffffffffffffff16815260200190815260200160002060060160008d815260200190815260200160002060050154614f10565b91506137e2600760008e73ffffffffffffffffffffffffffffffffffffffff1673ffffffffffffffffffffffffffffffffffffffff16815260200190815260200160002060060160008d81526020019081526020016000206009018054600181600116156101000203166002900480601f0160208091040260200160405190810160405280929190818152602001828054600181600116156101000203166002900480156137d65780601f106137ab576101008083540402835291602001916137d6565b820191906000526020600020905b8154815290600101906020018083116137b957829003601f168201915b5050505050858a615067565b905080600760008e73ffffffffffffffffffffffffffffffffffffffff1673ffffffffffffffffffffffffffffffffffffffff16815260200190815260200160002060060160008d8152602001908152602001600020600901908051906020019061384e929190615325565b506138e3565b7fdf8dca245d7ff96a83e9b8205a2ad0be04df6e3bbda74669314fdc76657f0e826040518080602001828103825260248152602001807f596f75206861766520616c72656164792072657475726e65642074686973206281526020017f6f6f6b210000000000000000000000000000000000000000000000000000000081525060400191505060405180910390a15b613977565b7fdf8dca245d7ff96a83e9b8205a2ad0be04df6e3bbda74669314fdc76657f0e826040518080602001828103825260258152602001807f5468697320426f6f6b206973206e6f742062656c6f6e6720746f20746869732081526020017f757365722100000000000000000000000000000000000000000000000000000081525060400191505060405180910390a15b6139e5565b7fdf8dca245d7ff96a83e9b8205a2ad0be04df6e3bbda74669314fdc76657f0e826040518080602001828103825260208152602001807f54686973204d656d626572204944206973206e6f74207265676973746572642181525060200191505060405180910390a15b505050505050505050505050565b7f4611281ed1924263916753e69605f74d3fed129fff7b95bf82c6e87c1107d5a66006600083815260200190815260200160002060000154600660008481526020019081526020016000206001016006600085815260200190815260200160002060020160066000868152602001908152602001600020600301600660008781526020019081526020016000206004015460066000888152602001908152602001600020600501546006600089815260200190815260200160002060060154600660008a8152602001908152602001600020600701604051808981526020018060200180602001806020018881526020018781526020018681526020018060200185810385528c818154600181600116156101000203166002900481526020019150805460018160011615610100020316600290048015613b755780601f10613b4a57610100808354040283529160200191613b75565b820191906000526020600020905b815481529060010190602001808311613b5857829003601f168201915b505085810384528b818154600181600116156101000203166002900481526020019150805460018160011615610100020316600290048015613bf85780601f10613bcd57610100808354040283529160200191613bf8565b820191906000526020600020905b815481529060010190602001808311613bdb57829003601f168201915b505085810383528a818154600181600116156101000203166002900481526020019150805460018160011615610100020316600290048015613c7b5780601f10613c5057610100808354040283529160200191613c7b565b820191906000526020600020905b815481529060010190602001808311613c5e57829003601f168201915b50508581038252868181548152602001915080548015613cba57602002820191906000526020600020905b815481526020019060010190808311613ca6575b50509c5050505050505050505050505060405180910390a150565b60015481565b6000809054906101000a900473ffffffffffffffffffffffffffffffffffffffff1681565b60408051908101604052808373ffffffffffffffffffffffffffffffffffffffff16815260200182815250600860008473ffffffffffffffffffffffffffffffffffffffff1673ffffffffffffffffffffffffffffffffffffffff16815260200190815260200160002060008201518160000160006101000a81548173ffffffffffffffffffffffffffffffffffffffff021916908373ffffffffffffffffffffffffffffffffffffffff1602179055506020820151816001019080519060200190613dcd9291906153a5565b509050505050565b8273ffffffffffffffffffffffffffffffffffffffff16600860008573ffffffffffffffffffffffffffffffffffffffff1673ffffffffffffffffffffffffffffffffffffffff16815260200190815260200160002060000160009054906101000a900473ffffffffffffffffffffffffffffffffffffffff1673ffffffffffffffffffffffffffffffffffffffff1614156142265781600660008381526020019081526020016000206008016000848152602001908152602001600020600001541415613f0a577fdf8dca245d7ff96a83e9b8205a2ad0be04df6e3bbda74669314fdc76657f0e8260405180806020018281038252601e8152602001807f5468697320426f6f6b20494420697320616c726561647920657869737421000081525060200191505060405180910390a1614221565b600660008281526020019081526020016000206006015460066000838152602001908152602001600020600401541415613fd1577fdf8dca245d7ff96a83e9b8205a2ad0be04df6e3bbda74669314fdc76657f0e8260405180806020018281038252602f8152602001807f596f752063616e206e6f742061646420626f6f6b206d6f7265207468656e206181526020017f7661696c61626c652073746f636b21000000000000000000000000000000000081525060400191505060405180910390a1614220565b600160066000838152602001908152602001600020600501540160066000838152602001908152602001600020600501819055506001600660008381526020019081526020016000206006015401600660008381526020019081526020016000206006018190555060016006600083815260200190815260200160002060070183908060018154018082558091505090600182039060005260206000200160009091929091909150555050816006600083815260200190815260200160002060080160008481526020019081526020016000206000018190555080600660008381526020019081526020016000206008016000848152602001908152602001600020600101819055508260066000838152602001908152602001600020600801600084815260200190815260200160002060020160006101000a81548173ffffffffffffffffffffffffffffffffffffffff021916908373ffffffffffffffffffffffffffffffffffffffff160217905550600060066000838152602001908152602001600020600801600084815260200190815260200160002060030160006101000a81548173ffffffffffffffffffffffffffffffffffffffff021916908373ffffffffffffffffffffffffffffffffffffffff1602179055504260066000838152602001908152602001600020600801600084815260200190815260200160002060040181905550600160066000838152602001908152602001600020600801600084815260200190815260200160002060050160006101000a81548160ff0219169083151502179055505b5b6142b5565b7fdf8dca245d7ff96a83e9b8205a2ad0be04df6e3bbda74669314fdc76657f0e826040518080602001828103825260238152602001807f596f7520617265206e6f74207065726d697373696f6e6564206c69627261726981526020017f616e21000000000000000000000000000000000000000000000000000000000081525060400191505060405180910390a15b505050565b60025481565b6007602052806000526040600020600091509050806000018054600181600116156101000203166002900480601f01602080910402602001604051908101604052809291908181526020018280546001816001161561010002031660029004801561436c5780601f106143415761010080835404028352916020019161436c565b820191906000526020600020905b81548152906001019060200180831161434f57829003601f168201915b5050505050908060010160009054906101000a900473ffffffffffffffffffffffffffffffffffffffff1690806002018054600181600116156101000203166002900480601f0160208091040260200160405190810160405280929190818152602001828054600181600116156101000203166002900480156144305780601f1061440557610100808354040283529160200191614430565b820191906000526020600020905b81548152906001019060200180831161441357829003601f168201915b5050505050908060030154905084565b60006060806060600080600660008881526020019081526020016000206000015460066000898152602001908152602001600020600101600660008a8152602001908152602001600020600201600660008b8152602001908152602001600020600301600660008c815260200190815260200160002060040154600660008d815260200190815260200160002060050154848054600181600116156101000203166002900480601f0160208091040260200160405190810160405280929190818152602001828054600181600116156101000203166002900480156145665780601f1061453b57610100808354040283529160200191614566565b820191906000526020600020905b81548152906001019060200180831161454957829003601f168201915b50505050509450838054600181600116156101000203166002900480601f0160208091040260200160405190810160405280929190818152602001828054600181600116156101000203166002900480156146025780601f106145d757610100808354040283529160200191614602565b820191906000526020600020905b8154815290600101906020018083116145e557829003601f168201915b50505050509350828054600181600116156101000203166002900480601f01602080910402602001604051908101604052809291908181526020018280546001816001161561010002031660029004801561469e5780601f106146735761010080835404028352916020019161469e565b820191906000526020600020905b81548152906001019060200180831161468157829003601f168201915b5050505050925095509550955095509550955091939550919395565b7f2346529824be709ce9d0aa7e53b552eebdd4a1c0b6568831cd7dadfc766fc48282600760008573ffffffffffffffffffffffffffffffffffffffff1673ffffffffffffffffffffffffffffffffffffffff168152602001908152602001600020600601600084815260200190815260200160002060000154600760008673ffffffffffffffffffffffffffffffffffffffff1673ffffffffffffffffffffffffffffffffffffffff168152602001908152602001600020600601600085815260200190815260200160002060010154600760008773ffffffffffffffffffffffffffffffffffffffff1673ffffffffffffffffffffffffffffffffffffffff168152602001908152602001600020600601600086815260200190815260200160002060020154600760008873ffffffffffffffffffffffffffffffffffffffff1673ffffffffffffffffffffffffffffffffffffffff168152602001908152602001600020600601600087815260200190815260200160002060030154600760008973ffffffffffffffffffffffffffffffffffffffff1673ffffffffffffffffffffffffffffffffffffffff168152602001908152602001600020600601600088815260200190815260200160002060040154600760008a73ffffffffffffffffffffffffffffffffffffffff1673ffffffffffffffffffffffffffffffffffffffff168152602001908152602001600020600601600089815260200190815260200160002060050154600760008b73ffffffffffffffffffffffffffffffffffffffff1673ffffffffffffffffffffffffffffffffffffffff16815260200190815260200160002060060160008a8152602001908152602001600020600601600760008c73ffffffffffffffffffffffffffffffffffffffff1673ffffffffffffffffffffffffffffffffffffffff16815260200190815260200160002060060160008b8152602001908152602001600020600701600760008d73ffffffffffffffffffffffffffffffffffffffff1673ffffffffffffffffffffffffffffffffffffffff16815260200190815260200160002060060160008c8152602001908152602001600020600801600760008e73ffffffffffffffffffffffffffffffffffffffff1673ffffffffffffffffffffffffffffffffffffffff16815260200190815260200160002060060160008d8152602001908152602001600020600901604051808c73ffffffffffffffffffffffffffffffffffffffff1673ffffffffffffffffffffffffffffffffffffffff1681526020018b81526020018a815260200189815260200188815260200187815260200186815260200180602001806020018060200180602001858103855289818154600181600116156101000203166002900481526020019150805460018160011615610100020316600290048015614b295780601f10614afe57610100808354040283529160200191614b29565b820191906000526020600020905b815481529060010190602001808311614b0c57829003601f168201915b5050858103845288818154600181600116156101000203166002900481526020019150805460018160011615610100020316600290048015614bac5780601f10614b8157610100808354040283529160200191614bac565b820191906000526020600020905b815481529060010190602001808311614b8f57829003601f168201915b5050858103835287818154600181600116156101000203166002900481526020019150805460018160011615610100020316600290048015614c2f5780601f10614c0457610100808354040283529160200191614c2f565b820191906000526020600020905b815481529060010190602001808311614c1257829003601f168201915b5050858103825286818154600181600116156101000203166002900481526020019150805460018160011615610100020316600290048015614cb25780601f10614c8757610100808354040283529160200191614cb2565b820191906000526020600020905b815481529060010190602001808311614c9557829003601f168201915b50509f5050505050505050505050505050505060405180910390a15050565b60035481565b60086020528060005260406000206000915090508060000160009054906101000a900473ffffffffffffffffffffffffffffffffffffffff1690806001018054600181600116156101000203166002900480601f016020809104026020016040519081016040528092919081815260200182805460018160011615610100020316600290048015614da95780601f10614d7e57610100808354040283529160200191614da9565b820191906000526020600020905b815481529060010190602001808311614d8c57829003601f168201915b5050505050905082565b8160066000848152602001908152602001600020600001541415614e0957806006600084815260200190815260200160002060040154016006600084815260200190815260200160002060040181905550614e98565b7fdf8dca245d7ff96a83e9b8205a2ad0be04df6e3bbda74669314fdc76657f0e826040518080602001828103825260238152602001807f54686973204953444e20626f6f6b206e756d626572206973206e6f742065786981526020017f737421000000000000000000000000000000000000000000000000000000000081525060400191505060405180910390a15b5050565b606060066000838152602001908152602001600020600701805480602002602001604051908101604052809291908181526020018280548015614efe57602002820191906000526020600020905b815481526020019060010190808311614eea575b50505050509050919050565b60045481565b60606000806060600080861415614f5e576040805190810160405280600181526020017f3000000000000000000000000000000000000000000000000000000000000000815250945061505e565b8593505b600084141515614f88578280600101935050600a84811515614f8057fe5b049350614f62565b826040519080825280601f01601f191660200182016040528015614fbb5781602001602082028038833980820191505090505b5091506001830390505b60008614151561505a57600a86811515614fdb57fe5b066030017f01000000000000000000000000000000000000000000000000000000000000000282828060019003935081518110151561501657fe5b9060200101907effffffffffffffffffffffffffffffffffffffffffffffffffffffffffffff1916908160001a905350600a8681151561505257fe5b049550614fc5565b8194505b50505050919050565b6060806060806060806000808a965089955088945085518551885101016040519080825280601f01601f1916602001820160405280156150b65781602001602082028038833980820191505090505b50935083925060009150600090505b86518110156151785786818151811015156150dc57fe5b9060200101517f010000000000000000000000000000000000000000000000000000000000000090047f010000000000000000000000000000000000000000000000000000000000000002838380600101945081518110151561513b57fe5b9060200101907effffffffffffffffffffffffffffffffffffffffffffffffffffffffffffff1916908160001a90535080806001019150506150c5565b600090505b845181101561523057848181518110151561519457fe5b9060200101517f010000000000000000000000000000000000000000000000000000000000000090047f01000000000000000000000000000000000000000000000000000000000000000283838060010194508151811015156151f357fe5b9060200101907effffffffffffffffffffffffffffffffffffffffffffffffffffffffffffff1916908160001a905350808060010191505061517d565b600090505b85518110156152e857858181518110151561524c57fe5b9060200101517f010000000000000000000000000000000000000000000000000000000000000090047f01000000000000000000000000000000000000000000000000000000000000000283838060010194508151811015156152ab57fe5b9060200101907effffffffffffffffffffffffffffffffffffffffffffffffffffffffffffff1916908160001a9053508080600101915050615235565b829750505050505050509392505050565b8154818355818111156153205781836000526020600020918201910161531f9190615425565b5b505050565b828054600181600116156101000203166002900490600052602060002090601f016020900481019282601f1061536657805160ff1916838001178555615394565b82800160010185558215615394579182015b82811115615393578251825591602001919060010190615378565b5b5090506153a19190615425565b5090565b828054600181600116156101000203166002900490600052602060002090601f016020900481019282601f106153e657805160ff1916838001178555615414565b82800160010185558215615414579182015b828111156154135782518255916020019190600101906153f8565b5b5090506154219190615425565b5090565b61544791905b8082111561544357600081600090555060010161542b565b5090565b905600a165627a7a723058200d50cd3fd36185a849419bfc2c7eebdd35fd10d5f243e82c5b8242474554a27e0029",
  "source": "pragma solidity ^0.4.18;\r\n\r\n\r\n\r\ncontract LMS{\r\n    address public owner;\r\n    uint public issuedate;\r\n    uint public timeDuration;\r\n    uint public returndate;\r\n    uint public addBookEventCnt;\r\n\t\r\n    struct book{\r\n        uint ISDN;\r\n        string title;\r\n        string author;\r\n        string publisher;\r\n        uint totalNumberofBook;\r\n        uint numberofAvailableBooks;\r\n        uint bookAdded;\r\n        uint [] bookStack;\r\n        mapping(uint => multipleBookDetails) multipleBooks;\r\n    }\r\n    \r\n    struct multipleBookDetails{\r\n        uint bookId;\r\n        uint ISDN;\r\n        address bookLibrarianArray;\r\n        address memberAddress;\r\n        uint dateAddedBook;\r\n        bool bookAvailable;\r\n    }\r\n    \r\n    struct bookTaken{\r\n        uint bookId;\r\n        uint ISDN;\r\n        uint dateIssued;\r\n        uint dateReturn;\r\n        uint duration;\r\n        uint rate;\r\n        string bookIssueJson;\r\n        string bookReturnJson;\r\n        string bookDurationJson;\r\n        string bookRateJson;\r\n        bool bookStatus;\r\n    }\r\n    \r\n    struct member{\r\n        string memberName;\r\n        address memberAccount;\r\n        string email;\r\n        uint dateAddedMember;\r\n        uint [] memberBookId;\r\n        mapping(uint => uint) memberAllBook;\r\n        mapping(uint => bookTaken) memberBookTaken;\r\n    }\r\n    \r\n    struct librarian{\r\n        address librarianAddress;\r\n        string librarianName;\r\n    }\r\n    \r\n    \r\n    event errorLog(string _errorLog);\r\n    event addBookEvent(uint ISDN, string title, string author, string publisher, uint totalNumberofBook,\r\n        uint numberofAvailableBooks,\r\n        uint bookAdded);\r\n    event allbookdata(uint ISDN,\r\n        string title,\r\n        string author,\r\n        string publisher,\r\n        uint totalNumberofBook,\r\n        uint numberofAvailableBooks,\r\n        uint bookAdded,\r\n        uint [] bookStack\r\n        );\r\n    event bookMulti(uint bookId,\r\n        uint ISDN,\r\n        address bookLibrarianArray,\r\n        address memberAddress,\r\n        uint dateAddedBook,\r\n        bool bookAvailable);\r\n    event bookStackArray(uint _stack);\r\n    \r\n    event bookMember(address _add, uint bookId,\r\n        uint ISDN,\r\n        uint dateIssued,\r\n        uint dateReturn,\r\n        uint duration,\r\n        uint rate,\r\n        string bookIssueJson,\r\n        string bookReturnJson,\r\n        string bookDurationJson,\r\n        string bookRateJson);\r\n    \r\n    string a;\r\n    mapping(uint => book) public bookDetails;\r\n    mapping(address => member) public memberDetails;\r\n    mapping(address => librarian) public librarianDetails;\r\n    \r\n    \r\n\r\n    function LMS() public {\r\n        owner = msg.sender;\r\n    }\r\n    \r\n    function addBook(uint _ISDN,string _title, string _author,string _publisher, uint _totalNumberofBook) public{\r\n        if(bookDetails[_ISDN].ISDN == _ISDN){\r\n            emit errorLog(\"This ISDN book is already exist!\");\r\n        }\r\n        else{\r\n            bookDetails[_ISDN].ISDN = _ISDN;\r\n            bookDetails[_ISDN].title = _title;\r\n            bookDetails[_ISDN].author = _author;\r\n            bookDetails[_ISDN].publisher = _publisher;\r\n            bookDetails[_ISDN].totalNumberofBook = _totalNumberofBook;\r\n            bookDetails[_ISDN].numberofAvailableBooks = 0;\r\n            bookDetails[_ISDN].bookAdded = 0;\r\n            \r\n\t\t\taddBookEventCnt++;\r\n\t\t\t\r\n            emit addBookEvent(_ISDN, _title, _author, _publisher, _totalNumberofBook, bookDetails[_ISDN].numberofAvailableBooks,bookDetails[_ISDN].bookAdded);\r\n        }\r\n    }\r\n    \r\n    \r\n    function addMultipleBook(address _librarianAddress, uint _bookId, uint _ISDN) public{\r\n        \r\n        if(librarianDetails[_librarianAddress].librarianAddress==_librarianAddress)\r\n        {\r\n            if(bookDetails[_ISDN].multipleBooks[_bookId].bookId == _bookId){\r\n                emit errorLog(\"This Book ID is already exist!\");\r\n            }\r\n            else{\r\n                    if(bookDetails[_ISDN].totalNumberofBook == bookDetails[_ISDN].bookAdded)\r\n                    {\r\n                        emit errorLog(\"You can not add book more then available stock!\");\r\n                    }\r\n                    else\r\n                    {\r\n                        \r\n                        bookDetails[_ISDN].numberofAvailableBooks = bookDetails[_ISDN].numberofAvailableBooks + 1;\r\n                        bookDetails[_ISDN].bookAdded = bookDetails[_ISDN].bookAdded + 1;\r\n                        \r\n                        bookDetails[_ISDN].bookStack.push(_bookId) - 1;\r\n                        \r\n                        bookDetails[_ISDN].multipleBooks[_bookId].bookId = _bookId;\r\n                        bookDetails[_ISDN].multipleBooks[_bookId].ISDN = _ISDN;\r\n                        bookDetails[_ISDN].multipleBooks[_bookId].bookLibrarianArray = _librarianAddress;\r\n                        bookDetails[_ISDN].multipleBooks[_bookId].memberAddress = 0x00;\r\n                        bookDetails[_ISDN].multipleBooks[_bookId].dateAddedBook = now;\r\n                        bookDetails[_ISDN].multipleBooks[_bookId].bookAvailable = true;\r\n        \r\n                    }\r\n                \r\n                }\r\n        }\r\n        else\r\n        {\r\n            emit errorLog(\"You are not permissioned librarian!\");\r\n        }\r\n    }\r\n    \r\n    function addStockofBook(uint _ISDN, uint _stock) public {\r\n        if(bookDetails[_ISDN].ISDN == _ISDN){\r\n            bookDetails[_ISDN].totalNumberofBook = bookDetails[_ISDN].totalNumberofBook + _stock;\r\n        }\r\n        else{\r\n            emit errorLog(\"This ISDN book number is not exist!\");\r\n        }\r\n    }\r\n    \r\n    \r\n    function addLibrarian(address _librarianAddress, string _name) public{\r\n            librarianDetails[_librarianAddress] = librarian(_librarianAddress,_name);\r\n        \r\n    }\r\n    \r\n   \r\n    function addMember(string _memberName, address _memberAccount, string _email) public{\r\n        \r\n\t\tif(memberDetails[_memberAccount].memberAccount == _memberAccount){\r\n            emit errorLog(\"This Member ID is already exist!\");\r\n        }\r\n        else{\r\n            memberDetails[_memberAccount].memberName = _memberName;\r\n            memberDetails[_memberAccount].memberAccount = _memberAccount;\r\n            memberDetails[_memberAccount].email = _email;\r\n            memberDetails[_memberAccount].dateAddedMember = now;\r\n            \r\n        }\r\n            \r\n        \r\n    }\r\n    \r\n    function nextBookAvailable(uint _ISDN) public view returns(uint){\r\n        return (bookDetails[_ISDN].bookStack[0]);\r\n    }\r\n    \r\n    function issueBook(address _memberAddress, uint _ISDN) public{\r\n        \r\n        uint _bookId = bookDetails[_ISDN].bookStack[0];\r\n        \r\n        if(memberDetails[_memberAddress].memberAccount == _memberAddress){\r\n            if(bookDetails[_ISDN].multipleBooks[_bookId].bookAvailable == true){\r\n                \r\n                bookDetails[_ISDN].multipleBooks[_bookId].memberAddress = _memberAddress;\r\n                bookDetails[_ISDN].multipleBooks[_bookId].bookAvailable = false;\r\n                bookDetails[_ISDN].numberofAvailableBooks -= 1;\r\n                \r\n                uint len = bookDetails[_ISDN].bookStack.length-1;\r\n                \r\n                 for (uint i = 0; i<len; i++){\r\n                    bookDetails[_ISDN].bookStack[i] = bookDetails[_ISDN].bookStack[i+1];\r\n                }\r\n                delete bookDetails[_ISDN].bookStack[len];\r\n                bookDetails[_ISDN].bookStack.length--;\r\n        \r\n                memberDetails[_memberAddress].memberBookTaken[_bookId].bookId = _bookId;\r\n                memberDetails[_memberAddress].memberBookTaken[_bookId].ISDN = _ISDN;\r\n                memberDetails[_memberAddress].memberBookTaken[_bookId].dateIssued = now;\r\n                memberDetails[_memberAddress].memberBookTaken[_bookId].bookStatus = false;\r\n                \r\n                if(memberDetails[_memberAddress].memberAllBook[_bookId] > 0)\r\n                {\r\n                    memberDetails[_memberAddress].memberBookId.push(_bookId) - 1;\r\n                    \r\n                    memberDetails[_memberAddress].memberAllBook[_bookId] += 1;\r\n                }\r\n                else\r\n                {\r\n                    emit errorLog(\"This Book ID is already in array!\");\r\n                }\r\n               \r\n            }\r\n            else{\r\n                emit errorLog(\"Book is Not Available!\");\r\n            }\r\n        }\r\n        else{\r\n            emit errorLog(\"This Member ID is not registerd!\");\r\n        }\r\n    }\r\n    \r\n    \r\n    function returnBook(address _memberAddress, uint _bookId, uint _ISDN) public{\r\n        if(bookDetails[_ISDN].multipleBooks[_bookId].memberAddress == _memberAddress){\r\n            \r\n            if(bookDetails[_ISDN].multipleBooks[_bookId].bookId == _bookId){\r\n                \r\n                if(bookDetails[_ISDN].multipleBooks[_bookId].bookAvailable == false )\r\n                {    \r\n                    \r\n                    bookDetails[_ISDN].bookStack.push(_bookId) - 1;\r\n                    \r\n                    bookDetails[_ISDN].numberofAvailableBooks += 1;\r\n                    \r\n                    bookDetails[_ISDN].multipleBooks[_bookId].bookAvailable = true;\r\n                    \r\n                    memberDetails[_memberAddress].memberBookTaken[_bookId].bookStatus = true;\r\n                    \r\n                    memberDetails[_memberAddress].memberBookTaken[_bookId].dateReturn = now;\r\n                    \r\n                    issuedate = memberDetails[_memberAddress].memberBookTaken[_bookId].dateIssued;\r\n                    \r\n                    timeDuration = now - issuedate ;\r\n                    \r\n                    memberDetails[_memberAddress].memberBookTaken[_bookId].duration = timeDuration;\r\n                    \r\n                    memberDetails[_memberAddress].memberBookTaken[_bookId].rate = timeDuration / 10;\r\n                    \r\n                    //var parts = new strings.slice[](1);\r\n                    \r\n                    var new_issue_date = uint2str(issuedate);\r\n                    var appendComma = \",\";\r\n                    var result = concatTwoString(memberDetails[_memberAddress].memberBookTaken[_bookId].bookIssueJson, new_issue_date, appendComma);\r\n                    memberDetails[_memberAddress].memberBookTaken[_bookId].bookIssueJson = string(result);\r\n                    \r\n                    var new_reurn_book = uint2str(memberDetails[_memberAddress].memberBookTaken[_bookId].dateReturn);\r\n                    var result1 = concatTwoString(memberDetails[_memberAddress].memberBookTaken[_bookId].bookReturnJson, new_reurn_book , appendComma);\r\n                    memberDetails[_memberAddress].memberBookTaken[_bookId].bookReturnJson = string(result1);\r\n                    \r\n                    var bookDurationJson1 = uint2str(memberDetails[_memberAddress].memberBookTaken[_bookId].duration);\r\n                    var result2 = concatTwoString(memberDetails[_memberAddress].memberBookTaken[_bookId].bookDurationJson, bookDurationJson1 , appendComma);\r\n                    memberDetails[_memberAddress].memberBookTaken[_bookId].bookDurationJson = string(result2);\r\n                    \r\n                    var bookDurationJson2 = uint2str(memberDetails[_memberAddress].memberBookTaken[_bookId].rate);\r\n                    var result3 = concatTwoString(memberDetails[_memberAddress].memberBookTaken[_bookId].bookRateJson, bookDurationJson1 , appendComma);\r\n                    memberDetails[_memberAddress].memberBookTaken[_bookId].bookRateJson = string(result3);\r\n                    \r\n                }\r\n                else\r\n                {\r\n                    emit errorLog(\"You have already returned this book!\");\r\n                }\r\n            }\r\n           else{\r\n               emit errorLog(\"This Book is not belong to this user!\");\r\n           }\r\n        }\r\n        else{\r\n            emit errorLog(\"This Member ID is not registerd!\");\r\n        }\r\n    }\r\n    //GET ALL BOOK DATA\r\n\r\n    function getBookAll(uint _ISDN) public {\r\n        \r\n        emit allbookdata(bookDetails[_ISDN].ISDN,\r\n            bookDetails[_ISDN].title,\r\n            bookDetails[_ISDN].author,\r\n            bookDetails[_ISDN].publisher,\r\n            bookDetails[_ISDN].totalNumberofBook,\r\n            bookDetails[_ISDN].numberofAvailableBooks,\r\n            bookDetails[_ISDN].bookAdded,\r\n            bookDetails[_ISDN].bookStack);\r\n    }\r\n    \r\n    function getMultiBookData(uint _ISDN, uint _bookId) public{\r\n        \r\n       emit bookMulti(bookDetails[_ISDN].multipleBooks[_bookId].bookId,\r\n            bookDetails[_ISDN].multipleBooks[_bookId].ISDN,\r\n            bookDetails[_ISDN].multipleBooks[_bookId].bookLibrarianArray,\r\n            bookDetails[_ISDN].multipleBooks[_bookId].memberAddress,\r\n            bookDetails[_ISDN].multipleBooks[_bookId].dateAddedBook,\r\n            bookDetails[_ISDN].multipleBooks[_bookId].bookAvailable);\r\n    }\r\n\r\n    function getBookData(uint _ISDN) public view returns(uint,\r\n        string,\r\n        string,\r\n        string,\r\n        uint,\r\n        uint)\r\n    {\r\n        return(bookDetails[_ISDN].ISDN,\r\n            bookDetails[_ISDN].title,\r\n            bookDetails[_ISDN].author,\r\n            bookDetails[_ISDN].publisher,\r\n            bookDetails[_ISDN].totalNumberofBook,\r\n            bookDetails[_ISDN].numberofAvailableBooks\r\n            );\r\n    }\r\n    \r\n    function getMultiBook(uint _ISDN, uint _bookId) public view returns(uint, uint, address, address, uint, bool){\r\n        return(bookDetails[_ISDN].multipleBooks[_bookId].bookId,\r\n            bookDetails[_ISDN].multipleBooks[_bookId].ISDN,\r\n            bookDetails[_ISDN].multipleBooks[_bookId].bookLibrarianArray,\r\n            bookDetails[_ISDN].multipleBooks[_bookId].memberAddress,\r\n            bookDetails[_ISDN].multipleBooks[_bookId].dateAddedBook,\r\n            bookDetails[_ISDN].multipleBooks[_bookId].bookAvailable);\r\n    }\r\n    \r\n    function getBookArray(uint _ISDN) public view returns(uint []){\r\n        return (bookDetails[_ISDN].bookStack);\r\n    }\r\n    \r\n    // GET ALL MEMBER DATA \r\n    \r\n    function getAllMemberBook(address _memberAdd, uint _bookId) public {\r\n       \r\n        emit bookMember(_memberAdd, \r\n        memberDetails[_memberAdd].memberBookTaken[_bookId].bookId,\r\n        memberDetails[_memberAdd].memberBookTaken[_bookId].ISDN,\r\n        memberDetails[_memberAdd].memberBookTaken[_bookId].dateIssued,\r\n        memberDetails[_memberAdd].memberBookTaken[_bookId].dateReturn, \r\n        memberDetails[_memberAdd].memberBookTaken[_bookId].duration,\r\n        memberDetails[_memberAdd].memberBookTaken[_bookId].rate,\r\n        memberDetails[_memberAdd].memberBookTaken[_bookId].bookIssueJson,\r\n        memberDetails[_memberAdd].memberBookTaken[_bookId].bookReturnJson,\r\n        memberDetails[_memberAdd].memberBookTaken[_bookId].bookDurationJson,\r\n        memberDetails[_memberAdd].memberBookTaken[_bookId].bookRateJson);\r\n    }\r\n    \r\n    function getMemberBookData(uint _ISDN, uint _bookId) public view returns(address, address, uint, uint, uint, uint){\r\n      \r\n        address memberAdd = bookDetails[_ISDN].multipleBooks[_bookId].memberAddress;\r\n        \r\n        return (bookDetails[_ISDN].multipleBooks[_bookId].bookLibrarianArray,\r\n        memberAdd, \r\n        memberDetails[memberAdd].memberBookTaken[_bookId].dateIssued,\r\n        memberDetails[memberAdd].memberBookTaken[_bookId].dateReturn, \r\n        memberDetails[memberAdd].memberBookTaken[_bookId].duration,\r\n        memberDetails[memberAdd].memberBookTaken[_bookId].rate);\r\n        \r\n        getJsonData(_bookId, memberAdd);\r\n    }\r\n    \r\n    \r\n    function getJsonData(uint _bookId, address _memberAdd) public view returns(string, string, string, string){\r\n        return (memberDetails[_memberAdd].memberBookTaken[_bookId].bookIssueJson,\r\n        memberDetails[_memberAdd].memberBookTaken[_bookId].bookReturnJson,\r\n        memberDetails[_memberAdd].memberBookTaken[_bookId].bookDurationJson,\r\n        memberDetails[_memberAdd].memberBookTaken[_bookId].bookRateJson);\r\n    }\r\n    \r\n    function getMemberBookArr(address _memberAddress) public view returns(address, string, string, uint, uint []){\r\n        return(memberDetails[_memberAddress].memberAccount,\r\n            memberDetails[_memberAddress].memberName,\r\n            memberDetails[_memberAddress].email,\r\n            memberDetails[_memberAddress].dateAddedMember,\r\n            memberDetails[_memberAddress].memberBookId);\r\n    }\r\n    \r\n    function concatTwoString(string old_issue_date,string new_issue_date, string appendComma) pure private returns(bytes){\r\n\t\tbytes memory ba = bytes(old_issue_date);\r\n\t\tbytes memory bb = bytes(new_issue_date);\r\n\t\tbytes memory cc = bytes(appendComma);\r\n\r\n\t\tstring memory abcde = new string(ba.length + cc.length + bb.length );\r\n\t\tbytes memory babcde = bytes(abcde);\r\n\t\tuint k = 0;\r\n\t\tfor (uint i = 0; i < ba.length; i++) babcde[k++] = ba[i];\r\n\t\tfor (i = 0; i < cc.length; i++) babcde[k++] = cc[i];\r\n\t\tfor (i = 0; i < bb.length; i++) babcde[k++] = bb[i];\r\n\t\treturn (babcde);\r\n\t}\r\n\t\r\n\tfunction uint2str(uint i) private pure returns (string){\r\n        if (i == 0) return \"0\";\r\n        uint j = i;\r\n        uint length;\r\n        while (j != 0){\r\n            length++;\r\n            j /= 10;\r\n        }\r\n        bytes memory  bstr = new bytes(length);\r\n        uint k = length - 1;\r\n        while (i != 0){\r\n            bstr[k--] = byte(48 + i % 10);\r\n            i /= 10;\r\n        }\r\n        return string(bstr);\r\n    }\r\n}",
  "sourcePath": "D:\\LibrarySystem\\contracts\\LMS.sol",
  "compiler": {
    "name": "solc",
    "version": "0.4.23+commit.124ca40d.Emscripten.clang"
  },
  "schemaVersion": "2.0.0",
  "updatedAt": "2018-06-06T06:39:19.357Z"
}